:100000000C94B4010C94D1010C94D1010C94D10145
:100010000C94D1010C94D1010C94D1010C94D10118
:100020000C94D1010C94D1010C94BA210C948E2221
:100030000C944E1C0C94D1010C94D1010C94D10160
:100040000C94D1010C94D1010C94D1010C94D101E8
:100050000C94D1010C94D51C0C94D1010C94D101B9
:100060000C94D1010C94D1010C94D1010C94D101C8
:100070000C94D1010C94D1010C94D1010C94D101B8
:100080000C94D1010C94D1010C94D1010C94D101A8
:100090000C94D1010C94D1010C94D1010C94D10198
:1000A0000C94D1010C94D1010C94D101DA00D90047
:1000B000A900AA002378247825782678277828783C
:1000C00029782A782178227850004F0024002500D2
:1000D00026002100220023001E001F002000240013
:1000E000250026002100220023001E001F00200002
:1000F00001000100010001000100010001000100F8
:1001000001000100010001000100010001000100E7
:100110000100010000000000000000002A2B280060
:1001200000000000000000000000000000000029A6
:10013000000000002C1E3420212224342627252EE6
:10014000362D3738271E1F2021222324252633331E
:10015000362E37381F0405060708090A0B0C0D0E4A
:100160000F101112131415161718191A1B1C1D2F16
:100170003130232D350405060708090A0B0C0D0E36
:100180000F101112131415161718191A1B1C1D2FF6
:100190003130354C0000000000000000000000007D
:1001A000000000000000000000000000000000004F
:1001B00000000000000000007E0F00D4FFFFFFC71A
:1001C000000000780C0356004F004900440039003D
:1001D00000000A0356004F004900440000000403D9
:1001E000090409025B00030100A0FA0904000001F0
:1001F00003010100092111010001224000070581CE
:100200000308000109040100020300000009211194
:1002100001000122220007058203200001070503D7
:10022000032000010904020001030000000921115C
:1002300001000122B600070584032000011201001D
:10024000020000000855F0343500010102000106EB
:1002500060FF0961A1010962150026FF0095207564
:100260000881020963150026FF0095207508910298
:10027000C005010902A10185020901A100050919B2
:10028000012908150025019508750181020501095C
:100290003009311581257F950275088106093815C9
:1002A00081257F950175088106050C0A38021581A4
:1002B000257F950175088106C0C005010980A1014F
:1002C000850319012AB700150126B700950175109D
:1002D0008100C0050C0901A101850419012AA002B1
:1002E000150126A002950175108100C005010906BF
:1002F000A1018506050719E029E7150025019508E4
:10030000750181020507190029EF1500250195F0F7
:1003100075018102050819012905950575019102EC
:10032000950175039101C005010906A10105071991
:10033000E029E715002501950875018102950175F1
:100340000881010507190029FF150026FF00950601
:1003500075088100050819012905950575019102A7
:10036000950175039101C00011241FBECFEFDAE0A3
:10037000DEBFCDBF11E0A0E0B1E0EEE9FAE402C0DB
:1003800005900D92A63AB107D9F722E0A6EAB1E0AE
:1003900001C01D92A53AB207E1F70E94B3100C9478
:1003A000F9240C94000084E008958430B8F463309C
:1003B000A8F4433098F450E093E0699F400D511D3C
:1003C0001124FA0199E0899FE00DF11D1124EE0F2F
:1003D000FF1FE453FF4F85919491089580E090E0D2
:1003E000089584E008958430B8F46230A8F4E82FCA
:1003F000F0E0EE0FFF1F6E0F7F2F711D660F771F4E
:10040000E1E0E427E60FF72FF11DEE0FFF1FE455A3
:10041000FF4F85919491089580E090E0089581E0E8
:10042000089581E008950E941102089508950E94A0
:1004300016020895A5E0B0E0E0E2F2E00C94652435
:1004400049835A833091AD0189819A81311119C054
:10045000662399F0222389F00E94C207182F682F83
:1004600089819A810E948F0769817A81812F0E94F8
:10047000370E2596E3E00C9481240E94A907182FDB
:10048000F3CF0E94C20769817A81F1CFFC01262F48
:10049000408151816281738184810E941A02089592
:1004A00081E00895CF93DF93EC0160E00E94460263
:1004B000BE010E941702DF91CF910895E1E0F0E0C4
:1004C000DF0102C0AA0FBB1F6A95E2F7BD01DF0181
:1004D00002C0AA0FBB1F4A95E2F76A2B01C0EE0FBC
:1004E0002A95EAF7962F9823961302C08E2B08952B
:1004F000E0958E230895242F462F682F8091B70111
:100500000E945E020E94F10608950E94720F0895F3
:100510000E94760F089508950E9485060E948B021E
:100520002FEF84E39CE0215080409040E1F700C031
:10053000000008950E948C020E94F91C08950E94F8
:100540008C020E940A1D08950F931F93CF93DF938F
:100550008C0161E00E944602EC01B8010E94AA13DE
:10056000811106C080E0DF91CF911F910F91089516
:10057000B801CE010E9413028823A1F3B801CE0175
:100580000E94701A882371F3B801CE010E94C21430
:10059000882341F3B801CE010E94E219882311F3A8
:1005A000F8018281882361F0C330FCE7DF07E9F0BE
:1005B00058F4C115ECE7DE07A9F0C130DC47B9F00B
:1005C000C8010E940F02CFCFCB358CE7D807A9F026
:1005D000CC35ECE7DE0771F0CA35DC4789F70E94BD
:1005E000BF0BEECF0E949A02BDCF0E94C70B0E94A4
:1005F0009F02B8CF0E94B50BE3CF0E94C30BE0CFA0
:100600000E942B1C0E942A0308950E942E030E9420
:10061000301C089508950E940A03089581E008950A
:100620000895CF93DF93D82F0E940E03C82F8823FD
:1006300019F08D2F0E9410038C2FDF91CF91089518
:100640000895CF93C82F0E940B038C2F0E94110393
:10065000CF91089580E00E94210308950E94BE1A60
:100660000E9421030895CF930E94BE1AC82F809143
:10067000A8018C1779F0C093A8010E94BA1C60935E
:10068000A9017093AA018093AB019093AC018C2FC8
:100690000E942103CF910895ABE0B0E0E2E5F3E0E2
:1006A0000C9466244F83588769877A878B876111FA
:1006B0000E94000B1E821D8285E0FE013796DE013E
:1006C000119601900D928A95E1F78C819D81892B7D
:1006D00061F449815A816B817C818D819E810E9468
:1006E000290A2B96E2E00C94822489819A8189233D
:1006F0008F3F79F3CE0101960E9450028111E9CF1C
:10070000F0CFFC01808191810E94EF07089566235C
:1007100029F00E9437110E940A1208950E94911137
:10072000FACFCF93C82F8823B9F08CEF8C0F813A82
:10073000A8F46C2F80910001909101010E94511B3F
:10074000882329F08C2F0E94C00A0E94210B8C2F35
:100750000E94B80A0E94210BCF91089580E28C0F6D
:10076000883048F4C77081E001C0880FCA95EAF765
:100770000E94E30AEFCFEBE5EC0FE33040F4F0E04A
:10078000EB5BFE4F808190E00E94F31AE5CFE8E535
:10079000EC0FE93150F4F0E0EE0FFF1FED5EFE4F7D
:1007A000808191810E94181BD7CF83E38C0F833106
:1007B00098F661E08C2F0E948703CECF882381F1C9
:1007C0009CEF980F913A28F40E94C00A0E94210BD6
:1007D000089590E2980F983050F4877091E001C02E
:1007E000990F8A95EAF7892F0E94E90AEFCF9BE5D6
:1007F000980F933028F490E080E00E94F31A089557
:1008000098E5980F993128F490E080E00E94181B39
:10081000089593E3980F933118F460E00E948703E2
:1008200008951F93CF93DF93182FEB010E9491033C
:10083000209739F4812F0E94DE03DF91CF911F9121
:1008400008958FE99FE00197F1F700C0000021971C
:10085000EFCF70E060E0893311F460E570E00E9452
:1008600011040895882321F00E94E30A0E94210BBD
:100870000895882321F00E94E90A0E94210B08951F
:10088000B0E0A0E0E6E4F4E00C945F246C01D62F25
:10089000C72FFC011281F580F2949FE0F9220E949B
:1008A000D90AE82E8823B9F0E12E1123A1F08C2F6C
:1008B000807F803421F080E28D0F8830D0F08091ED
:1008C0008D0282FF16C082E00E94840B0E94D90A2A
:1008D00091E0E82EE926BC2EB2948FE0B822FBE02E
:1008E000FB1508F468C0EB2DF0E0E550FB4D0C94CF
:1008F0004924E12CF0CF0C2F0F70C07F11F002952E
:10090000007F112399F0002359F080E28D0F883089
:1009100010F0D11107C0802F0E94E30A0E94210B22
:100920008D2F41C0802F0E94F30AF8CF8D2F0E9497
:10093000DE03002309F43FC080E28D0F883010F001
:10094000D11104C0802F0E94E90A03C0802F0E94A9
:10095000F90A0E94210B2FC00C2F0F70C07FC032EC
:1009600011F00295007FDD2381F0D13009F468C0D9
:10097000112309F472C0FF2009F468C0F6018581D3
:1009800080FFCECF8F70858361C080918D0282FD04
:1009900033C0112359F0002329F0802F0E94E30A6D
:1009A0000E94210B80E00E94910305C080E00E941C
:1009B000DE030111C7CFEB2DE850FF0B349720F475
:1009C0000E94BE1A0E942103EE2089F00E94D50ADF
:1009D00080FD0DC0F60112820E94CF0A0E9403071B
:1009E000C6010E9445060E94CF0A0E940F07CDB79C
:1009F000DEB7E9E00C947B24112389F0F11006C0E6
:100A00000E94030B802B0E943204D5CF21E0F2120A
:100A1000F7CF0E94030B802B0E940A0BCCCFF11062
:100A200006C00E94170B802F0E943904C4CF31E00A
:100A3000F31609F2802F0E9439040E94170BBBCFD6
:100A4000112331F085E08F1508F4B5CF802FDBCF6F
:100A500094E09F1508F4AFCFE6CFFF2021F3D93300
:100A600049F4FFEF27EE33E0F15020403040E1F74A
:100A700000C000008D2F0E94DE039DCF8C2F869535
:100A80008695837069F0813009F095CF8D2F9C2F6A
:100A90009370111102C080E090E00E94181B8BCF70
:100AA0008D2F9C2F9370111102C080E090E00E9466
:100AB000F31A81CF612F8D2F0E9487037CCF8C2F5B
:100AC000837079F5111177CF4D2F42954695477078
:100AD000440F440F8D2F8F70042E01C0880F0A948D
:100AE000EAF72D2F2071D4FF07C02FE030E001C0BE
:100AF000220F4A95EAF72095C695C695C370822BBA
:100B0000C23049F058F4C13019F00E94DF0653CFCB
:100B10000E94D90650CF0E94E5064DCF0E94D6060E
:100B20004ACF8695112311F08C2F8170882309F408
:100B300042CF4D2F429546954770440F440F8D2F5D
:100B40008F70042E01C0880F0A94EAF72D2F2071B0
:100B5000D4FF07C02FE030E001C0220F4A95EAF72A
:100B60002095C695C695C370822BC23049F058F4C3
:100B7000C13019F00E942E071ECF0E9428071BCFFC
:100B80000E94340718CF0E94F10615CFCF701123B1
:100B900029F08C2F0E9403078D2F35CF8D2F0E94B7
:100BA00039048C2F0E940F0706CFD23F51F160F419
:100BB000D03FB9F0D13F81F0112309F449C0F110C1
:100BC000AFCE8C2F8F7121C0D33F11F1D43FA1F74D
:100BD00080918D0282FD26C08C2F8F71112311F31D
:100BE00014C0112349F084E08F1508F4E4CE8C2F53
:100BF0008F710E941C07DFCE95E09F1508F4DBCEB5
:100C0000F6CF8C2F8F711111CDCF0E940307D3CE59
:100C1000112329F08C2F8F710E94FA06CCCE0E94EE
:100C2000F606C9CE112349F0CF718C2F0E9403071D
:100C300063E08C2F0E94660BBECE81E00E94840B85
:100C4000E1E0EF1508F0B7CE82E00E94840BB3CE4E
:100C5000F11005CF8C2F8F71A5CF0F931F93CF93DA
:100C6000DF93EC01688179818A810E94FA078C0107
:100C70000E943A070E94D506B801CE010E944004A6
:100C8000DF91CF911F910F910895CF93DF93EC01E6
:100C90008B819C81892B29F08881998189238F3FC1
:100CA00051F4DF91CF910895CE010E942D06CE011F
:100CB0000E945202F6CFCE010E94A4028111F4CF0D
:100CC0000E94D90A882369F38A81882351F380918D
:100CD0008D0282FFE6CF82E00E94840BE2CF90E09B
:100CE00080E00E94F31A90E080E00E94181B0E94AE
:100CF000000B0E94210B0E9426120E940A120895E6
:100D00000E94C80A0E946F0608950E94F00A0E947D
:100D10008006089592959F70963091F058F4925FF6
:100D20009F70923058F4803F19F030F4883E30F4D0
:100D300081E008959A5FF4CF843FD1F380E0089575
:100D4000883EB0F3813FD1F7F3CFFC0183819481DA
:100D5000892B29F08081918189238F3F11F480E0D4
:100D60000895808191810E94EF070E948A0608956C
:100D7000A5E0B0E0EEEBF6E00C9466242596E2E008
:100D80000C948224A6E0B0E0E8ECF6E00C94662433
:100D90002696E2E00C94822408950E94CC060895E1
:100DA0000E94CD068093B801089508950E94D00650
:100DB00008959091B801892B0E94D00608959091D2
:100DC000B80189230E94D00608959091B80189271F
:100DD0000E94D00608950E94CC0608950E94EB065A
:100DE00008950E94EE068093B701089580E00E9466
:100DF000F106089591E001C0990F8A95EAF7892FCD
:100E00000E94F106089521E030E001C0220F8A958A
:100E1000EAF78091B701822B0E94F106089521E044
:100E200030E001C0220F8A95EAF720958091B70142
:100E300082230E94F106089521E030E001C0220FD4
:100E40008A95EAF78091B70182270E94F1060895FA
:100E50009091B701892B0E94F10608959091B701F6
:100E600089230E94F10608959091B70189270E9475
:100E7000F10608950895262F277091E001C0990F7B
:100E80002A95EAF723E0769567952A95E1F7FB0125
:100E9000EE0FFF1FE60FF71FE40FF51F50E040E0D5
:100EA000682F70E08191DF0111979B01042E02C031
:100EB000369527950A94E2F7217021952827292352
:100EC00028272C934F5F5F4F4330510559F7089502
:100ED000A82FA77023E0969587952A95E1F7FC0146
:100EE000EE0FFF1FE80FF91FE60FF71F50E040E07D
:100EF00080E0219130E00A2E02C0369527950A94B1
:100F0000E2F721703327042E01C0220F0A94EAF77A
:100F1000822B4F5F5F4F4330510559F70895282FBB
:100F2000862F933070F4233058F4622F70E023E062
:100F3000929F600D711D112441EB51E00E943B070F
:100F400008959C5F9230E0F7622F70E04EEA51E026
:100F5000F5CF292F933068F4833090F490E061EB63
:100F600071E033E0239F800D911D11240E946807DA
:100F700008952C5F223020F46EEA71E090E0F6CF05
:100F800080E00895CF92DF92FF920F931F93CF934B
:100F9000DF936C010091B7018091B801082BC7E085
:100FA000D0E010E0FC2EC8010C2E02C0959587956C
:100FB0000A94E2F780FD0CC02197A0F7F12C8F2D49
:100FC000DF91CF911F910F91FF90DF90CF90089507
:100FD000B6018C2F0E94500E019771F3F0CFCF9382
:100FE000DF93EC010E94C207BE010E94500EDF9108
:100FF000CF9108951F93CF93DF93EB019091AD01B3
:10100000992339F0CB010E94EF07DF91CF911F9117
:101010000895882369F0CB010E94C207182F682F1A
:10102000CE010E948F07BE01812F0E94500EEDCF8E
:10103000CB010E94A907182FF6CF1F93CF93DF9300
:10104000C091B90116E08091BA018C1304C0DF9100
:10105000CF911F910895D0E01C9FF0011D9FF00DCE
:101060001124E554FE4F4081518162817381848156
:1010700095810E94C2062196C770E5CF4091EB0191
:101080005091EC016091ED017091EE018091EF01C2
:101090009091F0010E94C20608951F93CF93DF93B1
:1010A0008091F001807F09F049C08091ED01882393
:1010B00009F444C08091B901C091BA016091EB017B
:1010C0007091EC01A091EE01B091EF01D62FD723E2
:1010D00016E0C81799F190E0109711F0DF3F19F46E
:1010E00001968770F6CF189F9001199F300D11243B
:1010F000F901E554FE4F41814713F2CF4081461379
:10110000EFCF42814111ECCF438154814A1B5B0BED
:10111000483C510528F78091F0018F7080618093E1
:10112000F001F901E054FE4F80818F70806180836F
:101130008BEE91E00E9445060E941D08DF91CF9141
:101140001F910895A1E1B0E0E8EAF8E00C945E2474
:101150008C0185E0F801DE011D9601900D928A95C3
:10116000E1F7F801E2808BEEC82E81E0D82E609185
:10117000EE017091EF016115710509F44EC1909176
:10118000EB012091EC01892F82238F3F09F445C1A7
:1011900040815181A380B480F090ED01F501E61B00
:1011A000F70BFF2009F4EAC08091F001382F307F5F
:1011B000E83CF10508F0A3C031116DC0FE2C2513E9
:1011C00016C0941314C0E11012C08F708061809318
:1011D000F0010E943E08C6010E9445068091F00180
:1011E000F80185838F2D6196EAE00C947A24A1148E
:1011F000B10429F0842F85238F3F09F027C180E0B7
:10120000F82FF170DF2E80FF3CC08091B901209152
:10121000BA0136E0821315C04D875E878D859E85A5
:101220000E94EF07292F22952F702230F0F02430F2
:1012300018F59F70F1F0F8019581907FD1F4D12CD1
:101240001EC090E0389FF001399FF00D1124E55445
:10125000FE4F6181651306C06081641303C0628123
:10126000E6120FC001968770D5CF9F7011F08823CA
:1012700031F3805E883018F3C8010E944506FD2CCA
:10128000B1CFEE2009F4AECF8091F0018160809360
:10129000F001F12CA7CF251306C0941304C0F80168
:1012A000EE2009F487C0C8010E94A506882319F121
:1012B000EE2009F18091F001803270F02091EB0175
:1012C0003091EC0138872F831986BB86AA868C87DC
:1012D000CE0107960E94450686E0F801ABEEB1E02C
:1012E00001900D928A95E1F70E944D080E943E08F8
:1012F000FF24F39477CFC8010E944506F9CF31113E
:1013000013C07A2DB98AA88A6E2D89890E94B806E1
:101310008BEE91E00E94450686E0F60111928A95D7
:10132000E9F70E943E08B5CF25130FC094130DC0F6
:10133000E1100BC0F8018583C8010E94450686E0D4
:10134000F60111928A95E9F74DCFC8010E94A506D2
:10135000882389F2EE2079F28091F001803208F43E
:10136000BBCF2091EB013091EC013A8329831B82A2
:10137000BD82AC828E83CE010196ACCFE83CF105F4
:1013800008F03EC0FE2CEE2009F4B5CF25132AC08C
:10139000941328C08091F00180FD1BC0982F907F8E
:1013A000C1F0F8018583903F31F0982F907F905FD6
:1013B0008F70892B8583C8010E94450686E0F8015D
:1013C000ABEEB1E001900D928A95E1F70E943E08E4
:1013D00009CF86E0F801ABEEB1E001900D928A955D
:1013E000E1F700CFC8010E94A506811175CF809159
:1013F000F00181608093F001C8010E944506F2CEA1
:101400007A2DB98AA88A6E2D89890E94B80686E04D
:10141000F60111928A95E9F7D9CFEE2009F46BCF46
:10142000C8010E94A506F82E882309F464CF86E03F
:10143000F801ABEEB1E001900D928A95E1F78BEEE9
:1014400091E00E9481030E944D08C0CF81E08E256B
:10145000D7CEACE0B0E0EFE2FAE00C9465244F8325
:10146000588769877A878B879C87CE0107960E9469
:10147000A208882369F08A859B85892B39F04F81E2
:101480005885842F85238F3F09F06BC016E05FC01D
:1014900086E0FE013796DE01119601900D928A9545
:1014A000E1F78A859B85892B89F38F81988589232C
:1014B0008F3F61F32091BA0130E0C9010196877036
:1014C00099274091B9014817190671F40E948506C1
:1014D0001092BA011092B90186E0EBEEF1E0DF0163
:1014E0001D928A95E9F7D2CF96E0929FD001939F03
:1014F000B00D1124A554BE4FFE01319601900D92FE
:101500009A95E1F78093BA010E941D08BFCF819F91
:10151000C001112485549E4F0E94A2088823E9F03F
:10152000E091B9011E9FF0011124E554FE4F408166
:10153000518162817381848195810E94C20680916C
:10154000B90190E00196877099278093B901809145
:10155000B9019091BA018913DACF2C96E3E00C948B
:10156000812469857A858B859C850E94C2068ECFF1
:10157000682F80910001909101010E94D11B089574
:10158000682F80910001909101010E94DF1B089556
:1015900080910001909101010E94ED1B08958091BE
:1015A0001102859585958595089580911102877022
:1015B000089590911102977081E009F480E00895F8
:1015C00080913402089590913402892B80933402E3
:1015D0000895809590913402982390933402089551
:1015E00010923402089590913302892B8093330234
:1015F0000895809590913302982390933302089533
:1016000010923302089580911202089508950E9465
:10161000060B089590918D0292FF08C090911202DE
:10162000981721F0809312020E94070B0895809171
:101630001202882329F01092120280E00E94070B08
:101640000895CF93DF93E0910001F0910101809123
:1016500034028083E0910001F0910101808190913A
:101660003302892B808390911202992381F0E091BB
:101670000001F09101018081892B8083809100011C
:10168000909101010E943D1B81110E94170BC09196
:101690000001D091010140E250E061EF71E0CE0124
:1016A0000E94A124892B59F080E2FE01A1EFB1E054
:1016B00001900D928A95E1F7CE010E94CB1ADF913D
:1016C000CF91089508950E94620B089590918D0224
:1016D00092FF11C098E0899F90011124622B6093C2
:1016E00011020E94030780911102859585958595C9
:1016F0000E94630B08950E9403070895109211023F
:1017000080E00E94630B08959091110280958923D7
:1017100080931102282F277091F4282F082E000C97
:10172000330B9217130659F090918D0292FF07C068
:101730008595859585950E940F070E947E0B0895DB
:1017400090918D0292FB222720F9281769F080FBE7
:1017500092F990938D0280918C0290918D020E945B
:10176000E90B82E00E94840B089580918D0282FB38
:10177000882780F991E089270E94A00B089581E0D5
:101780000E94A00B089580E00E94A00B08956FEFC7
:101790007FEF90E080E00E94E324089590E080E0F5
:1017A0000E94BF24873E9E4F19F40E94441308955F
:1017B00080E0089582E090E00E94B724089583E0DD
:1017C00090E00E94B724089584E090E00E94BF2436
:1017D0000895BC0184E090E00E94E3240895AB01E9
:1017E000BC018FE090E00E94D7240895AB01BC01BA
:1017F00083E190E00E94D724089560E070E0CB017F
:101800000E94F60B089560E070E0CB010E94EF0BA0
:101810000E94FD0B089567EE7EEF90E080E00E944D
:10182000E32460E082E090E00E94C52460E083E071
:1018300090E00E94C5241092B80160E074E184E059
:1018400090E00E94E32460E086E090E00E94C524DE
:101850006FEF87E090E00E94C52440E050E0BA01BD
:1018600088E090E00E94D72460E08DE090E00E9444
:10187000C52440E050E0BA0188E190E00E94D724FE
:1018800060E087E190E00E94C52440E050E0BA01AA
:101890008CE190E00E94D72470E060E080E290E06C
:1018A0000E94E32440E050E0BA0188E190E00E9409
:1018B000D72480E00E945D130E948C130E94030CC9
:1018C00008950E940B0C0895682F8EE090E00E940E
:1018D000C52408950E94BA1C60934202709343028B
:1018E000809344029093450260933E0270933F02BE
:1018F000809340029093410208950E94BA1C609325
:101900004202709343028093440290934502609395
:101910003A0270933B0280933C0290933D020895FB
:10192000089508950E94910C089508950E94950CC1
:1019300008958AE39FE00E94B41A0E94900C0E94CE
:10194000920C089581E008950E94A20C08950895D4
:1019500008950E94A70C0E94A80C08950E94560F9B
:101960000E94200308950E94A51C0E949C130E94BF
:1019700068160E9412100E94AE0C0E94960C0895E8
:10198000AAE0B0E0E6ECFCE00C945E240E94281093
:101990001091370280E00E94790F811339C01091B5
:1019A000380281E00E94790F181332C01091390279
:1019B00082E00E94790F18132BC00E94AE1C8C018C
:1019C000809135029091360208171907A1F08FEF28
:1019D00089838A831B820E94AE1C8160782F9D833D
:1019E0008C8349815A816B818D810E944C031093B5
:1019F0003602009335020E94D91681110E947D0C97
:101A00000E9448120E9433032A96EAE00C947A243A
:101A10008091460281FD0E947F0F0E94A40CC82E77
:101A200087E3A82E82E0B82E10E0812F0E94790F64
:101A3000082FF50181915F01081731F1D02ED826CA
:101A4000F12CEE24E3948D2D8E21B1F0CC20A1F069
:101A5000FE821F8391E0802F8E2109F490E0988709
:101A60000E94AE1C8160782F9A8789874E815F81A2
:101A700068858A850E944C03F394EE0CF3E0FF1214
:101A8000E2CFF501319700831F5F133071F60E949A
:101A90006A0CB1CFCF93DF930E94550EEC018115F4
:101AA00020E59207D0F5811530E4930708F086C051
:101AB000803E910518F58D3C910508F07DC0883A6F
:101AC000910570F4853A910508F06EC0813091055A
:101AD00001F10097F1F00497E0F4D0E0C0E019C004
:101AE000813C9105D0F7C85AD0E0CC0FDD1FC85B10
:101AF000DE4F0990D881C02DD4640BC0811590426F
:101B000008F0A8C0C11581E0D80718F4C83ED10577
:101B100020F7CE01DF91CF910895803622E592071C
:101B200010F5803432E5930708F052C080329245B8
:101B300008F047C0C11582E5D80708F47DC02C2FF6
:101B40002695269540E2249F900111248C2F8370C6
:101B5000C1E0D0E002C0CC0FDD1F8A95E2F7C22BB6
:101B6000D32BDD68D6CF803A22E5920760F4803827
:101B700032E5930708F441C0CF71D0E0DC2FCC27C9
:101B8000C46FD06AC6CF803C42E5940708F449C0D0
:101B9000C03E82E5D80708F0A0CFDC2FCC27CC27A9
:101BA000DF71C06FD06AB5CFC55AD0E0C658DE4FDE
:101BB000C881D0E0D064ADCFD065ABCFDF70D06A44
:101BC000A8CFCF71D0E0DC2FCC27C16FD06AA1CFD6
:101BD000282F26952695277080E2289F90011124B2
:101BE0008C2F8370C1E0D0E002C0CC0FDD1F8A953E
:101BF000E2F7C22BD32BDC688CCF282F26952695B5
:101C0000277040E2249F900111248370C1E0D0E04E
:101C100002C0CC0FDD1F8A95E2F7C22BD32BDA6806
:101C200078CF8F710E94F70EC82FD0E0DC2FCC2721
:101C3000CC27DF71D0626DCF8C2F8F710E94F70E91
:101C400035E0D695C7953A95E1F7CF709C2FEC011A
:101C5000D0695FCF8D2F8F710E94F70E90E0982F83
:101C6000882788279F719C012C2BE901E3CF7330D3
:101C700038F4633050F4462F672F0E94F01808950F
:101C80007D3F31F441E0623040F090E080E0089523
:101C90007C3FD9F76230C8F740E00E94FC180895F5
:101CA0000E94370E0E944A0D089582389105B9F1BD
:101CB000B0F48133910509F47DC048F4893291056F
:101CC00009F46DC08A32910509F47BC0089585330B
:101CD000910509F45FC08933910509F10895833EA8
:101CE0009105D9F138F4803E910529F1823E9105A4
:101CF00079F10895863E9105D9F1873E910509F461
:101D00003EC0843E910541F520918D0221FF24C003
:101D100080918C0284FD19C087EE90E00895209197
:101D20008C02237009F05AC020918D0223FF14C049
:101D300089E290E0089520918C0220FD38C0309116
:101D40008D0230FF09C024FF43C090E080E0089579
:101D500020918C0222FDF7CF089520918C0222FD64
:101D60003AC030918D0230FD39C024FFF5CFEDCF60
:101D700020918C0223FFF0CF24FDE7CFCDCF20911F
:101D80008C0223FD2EC030918D0231FFEECF84EE08
:101D900090E0089520918C0225FFDECFC9CF2091DD
:101DA0008C0225FD21C020918D0223FFD5CF89E330
:101DB00090E0D2CF20918C0226FFCECF8AE290E035
:101DC000089520918C0226FFC7CF81E390E008950B
:101DD00083EE90E0089582EE90E0089580EE90E02A
:101DE000089586EE90E0089585E390E0089590913F
:101DF0008C0292FF06C0282F28712830F9F4877FC3
:101E0000846093FF06C0282F28712831F1F4877E63
:101E1000846120918D0220FF06C0382F3871383040
:101E2000D9F4877F816021FF06C0282F28712831CF
:101E3000D1F4877E816194FD877E0895282F2471D7
:101E40002430F9F68B7F8860DCCF282F2471243171
:101E500001F78B7E8861DDCF382F3171313019F772
:101E60008E7F8860E0CF282F2171213121F78E7E6F
:101E70008861E1CF80E008950E94C70B08950E9419
:101E800028108FE39CE90197F1F700C000000E9441
:101E9000281080E00E94790F80FF04C00E943C0F50
:101EA0000E94F91C08950E943F0F08950E94CE0BD6
:101EB000811102C00E94610C0E94DA0B80934602DD
:101EC0000E94E40B90938D0280938C020E94530F2A
:101ED0000E94DF0B0E94D6068091B7010E94EE0699
:101EE000089508950E94710F089508950E94750F36
:101EF0000895E82FF0E0EF56FD4F80810895089592
:101F000080EA8A95F1F7089500C008950E94800F35
:101F10000895F894E82FE295EF70F0E031A1282FB2
:101F20002F7081E090E001C0880F2A95EAF7982F82
:101F30009095932391A392A1892B82A378940895DD
:101F400084EF0E94890F85EF0E94890F86EF0E941F
:101F5000890F81E90E94890F84E90E94890F80E935
:101F60000E94890F0895B0E0A0E0E9EBFFE00C9437
:101F70006024EC01D62E062F10E0C80180589E4F39
:101F80007C01FC0180818F3F09F445C0F894E82F63
:101F9000E295EF70F0E091A18F7021E030E001C098
:101FA000220F8A95EAF7892F822B81A382A120959F
:101FB000282322A378940E94840FEDE7F1E040E803
:101FC00051E031E0C12C21912F3F51F1A22FA29578
:101FD000AF70B0E090968C9190E02F7002C0959514
:101FE00087952A95E2F780FD1BC0832FC82A330FFF
:101FF0004E175F0741F7F70180818F3F11F00E9474
:10200000890F61E0C11001C060E08D2D0E94860F34
:10201000C00FD11FC882CDB7DEB7E8E00C947C2496
:1020200080E0E4CF0E94A00F83E0E1E9F2E0DF016D
:10203000982F1D929A95E9F7EEE8F2E0DF011D92E4
:102040008A95E9F783E00E9467100E94850208954F
:10205000A3E0B0E0EEE2F0E10C94652419821A826C
:102060001B8260E0CE0101960E94B30F61E0CE01B9
:1020700001960E94B30F62E0CE0101960E94B30F59
:1020800043E050E0BE016F5F7F4F8EE892E00E9418
:10209000A12421E0009709F420E0892B49F08981EF
:1020A0009A81AB8180938E0290938F02A0939002CD
:1020B00043E061E972E08EE892E00E946810182F18
:1020C0000E948802812F2396E3E00C9481240895D6
:1020D000CF92DF92EF92FF920F931F93CF936C01F9
:1020E0007B01042F222349F081E0809349020E9462
:1020F000AE1C9093480280934702C0914902C111DF
:102100000AC0C0E08C2FCF911F910F91FF90EF90EC
:10211000DF90CF90089580914702909148020E94ED
:10212000C61C059770F310E0A801B601C7010E9414
:10213000A124892B41F0A801B601C7010E94AE2459
:1021400010924902DFCFC0E0FBCF0E94941E0E9494
:10215000B30C0E94A11E08950E94A61E0E94C00CEE
:102160000E94C01E08950E94471C0E947A1E0E9471
:10217000990C0E94A5100E94AC100E94A90CFBCFE4
:102180008091500280FF0DC06091070170E0660FE2
:10219000771F6038710570F56115710569F1862F3B
:1021A000089581FF07C06091070184E0689FB00136
:1021B0001124EFCF6091070182FD0AC080914F0288
:1021C0008823A9F02091060160910701821710F081
:1021D00088E0ECCF869FC001112433E0880F991F5F
:1021E0003A95E1F7622F70E00E943524D2CF68E083
:1021F00070E0D5CF8FE7089581E008958091500277
:1022000080FF0CC06091030170E07595679575952E
:1022100067956115710549F1862F089581FF06C004
:102220006091030170E075956795F3CF60910301AC
:1022300082FD0BC090914E029923A1F060910201A2
:1022400080910301961738F0682F70E060387105AF
:1022500000F38FE70895899FC001112470E00E9468
:102260003524F4CF61E070E0D7CF81E008958D3C54
:1022700031F40E94C01081958093540208958E3CE1
:1022800019F40E94C010F8CF8F3C31F40E94C010A6
:102290008195809353020895803D19F40E94C010E7
:1022A000F8CF893D29F40E94FE10809355020895CD
:1022B0008A3D21F40E94FE108195F7CF8B3D31F4C9
:1022C0000E94FE1081958093560208958C3D19F46A
:1022D0000E94FE10F8CF9FE2980F983070F4815D55
:1022E000990B21E030E001C0220F8A95EAF7809136
:1022F0005202822B8093520208958D3D31F48091D9
:10230000500281608093500208958E3D21F48091A7
:1023100050028260F7CF8F3DB9F780915002846000
:10232000F1CF409153028D3C59F48091540287FFC4
:102330000DC01092540241110BC010924F0208C000
:102340008E3C81F48091540218169CF3442381F052
:102350008091550290915602892B09F05AC0109233
:102360004E0208958F3C49F447FFF0CF109253027C
:10237000809154028111ECCFE0CF803D19F4141606
:10238000ACF3E4CF90915502893D29F41916F4F687
:1023900010925502DBCF8A3D19F497FFD7CFF8CFC3
:1023A000909156028B3D29F497FFD0CF10925602A0
:1023B000CDCF8C3D19F41916CCF3C8CF9FE2980FFE
:1023C000983090F4815D990B21E030E0B90102C0B2
:1023D000660F771F8A95E2F7CB01809590915202A4
:1023E000892380935202B2CF8D3D31F48091500207
:1023F0008E7F80935002AACF8E3D21F480915002AF
:102400008D7FF7CF8F3D09F0A1CF809150028B7F58
:10241000F0CF08950E94AE1C9C01909153028091D0
:102420005402982B21F030934D0220934C0290914E
:10243000550280915602982B21F030934B02209345
:102440004A0281E592E00E94E51A089586E0E1E5FE
:10245000F2E0DF011D928A95E9F710924F02109287
:102460004E02109250020895FC01828181110EC02B
:10247000838181110BC08481811108C091E0858125
:10248000811101C090E0892F8170089581E0FCCF17
:10249000A6E0B0E0EEE4F2E10C94652486E0E1E52C
:1024A000F2E0DE01119601900D928A95E1F710920B
:1024B00053021092540210925502109256028B81D0
:1024C0009C81892B89F080914C0290914D020E9451
:1024D000C61CAC0190914F029923C9F1809108016B
:1024E0008417150608F440C08D819E81892B91F0D8
:1024F00080914A0290914B020E94C61CAC019091BF
:102500004E02992309F471C08091040184171506C5
:1025100008F479C0BE016F5F7F4F81E592E00E94B1
:10252000FF1B811105C081E592E00E9434128111E8
:102530000E940A1286E0FE013196A1E5B2E0019008
:102540000D928A95E1F72696E3E00C948124209180
:1025500009018AE0289F900111242417350720F6ED
:102560009F5F90934F0202C09F3FD1F71B811123C1
:1025700059F00E94C0109FEF11160CF491E0899F52
:10258000802D1124809353021C81112359F00E9445
:10259000C0109FEF11160CF491E0899F802D11243B
:1025A0008093540230915302332309F49DCF20913C
:1025B0005402222309F498CF45EB3403C0011124BF
:1025C000992359F09093530245EB24039001112471
:1025D000332339F03093540287CF81E08093530244
:1025E000F3CF81E0809354027FCF209105018AE0F0
:1025F000289F900111242417350708F08BCF9F5F87
:1026000090934E0202C09F3FD1F71D81112359F0D4
:102610000E94FE109FEF11160CF491E0899F802D0F
:102620001124809355021E81112359F00E94FE103F
:102630009FEF11160CF491E0899F802D1124809357
:10264000560230915502332309F464CF209156028B
:10265000222309F45FCF45EB3403C00111249923F1
:1026600059F09093550245EB240390011124332334
:1026700039F0309356024ECF81E080935502F3CF6C
:1026800081E08093560246CF82E290E00E94B72418
:10269000833289F483E290E00E94B724863059F4B3
:1026A00084E290E00E94B72491E0833109F090E049
:1026B000892F8170089580E0FCCFCF93C82F6FEFF2
:1026C000811163E282E290E00E94C5246FEFC111A4
:1026D00066E083E290E00E94C5246FEFC11163E1E0
:1026E00084E290E00E94C524CF910895089585E288
:1026F00090E00E94B724682F70E090E080E0089599
:102700000895CF93C62F0E9480136C2F85E290E02E
:102710000E94C524CF91089580E00E945D1360E07F
:1027200070E0CB010E9481130E944E180E9455193F
:1027300081E00E945D1308950E9476130E94771332
:102740000E9480130E944413811102C00E948C13C6
:1027500008950895CF93FB01C281CC2309F19C0118
:10276000225037472031310520F582500E946519EB
:10277000C0E08C2FCF91089581E00E94030743E0D1
:1027800062E081E00E947B02F3CF81E00E940F07AC
:1027900043E062E081E00E947B02EBCF82E0F6CF73
:1027A0008115F7E79F0789F381309747B9F3C1E0B7
:1027B000E0CF8115E7E79E07F9F281309747C9F628
:1027C00082E0DBCF2FEFFC01208308950E94E2130B
:1027D000089580E008951F93CF93DF93EC01162FA7
:1027E0000E94E913811110C0E881E150E531B0F495
:1027F000F0E0E95FFA4D0C94492419828BE08A835A
:10280000612FCE010E946E1DDF91CF911F9108951F
:102810008981823029F128F48130C9F08FEF8883D3
:10282000EFCF833039F08430C9F71A821B821C82C3
:102830001D82E6CF80E00E94790F8A8381E00E94AA
:10284000790F8B8382E00E94790F8C83D9CF0E940D
:10285000BA1C0E944F246A837B838C839D83D0CFD4
:102860000E947713F6CF8981823031F08530B1F63E
:102870008A810E94A913C4CF6A817B818C819D814A
:102880000E944F240E948113BBCF4B816A818981B2
:102890000E94A6179827892798279D838C83B0CFFD
:1028A0002C813D813227232732274B816A81898100
:1028B0000E94C817A5CF0E944E18A2CF612FCE014B
:1028C0000E94E6139DCF0E940619898399CF0E942A
:1028D00008199827892798279A83898391CF6B8134
:1028E00070E089819A81AE014C5F5F4F98278927FC
:1028F00098270E940B1984CF6B8170E089819A819F
:10290000AE014C5F5F4F9827892798270E943019A6
:1029100077CF0E94551974CF0E949417D6CF6B8140
:1029200070E089819A81AE014C5F5F4F98278927BB
:1029300098270E94AA1864CF6B8170E089819A81E0
:10294000AE014C5F5F4F9827892798270E94CD18CA
:1029500057CF41E08B81811101C040E06A818981BC
:102960000E94E41797CF2C813D81322723273227FD
:1029700041E08B81811101C040E06A8189810E9420
:102980001D183ECFCF93DF93EC01FB01828188239A
:1029900009F4D2C09E0130572332310508F0B2C08D
:1029A0000E94E40B90938D0280938C02FE01E15013
:1029B000F047E232F10520F4E45EFA4D0C9449242C
:1029C00080918C02816080938C0293C080918D02F3
:1029D000886080938D028DC080918C028260F3CFDD
:1029E00080918C028460EFCF80918C028860EBCF65
:1029F00080918D028160EDCF80918D028260E9CF60
:102A000080918C028061DFCF80918C028062DBCF6D
:102A100080918C028064D7CF0E94850680918C02C1
:102A20008068D1CF80918C028C60CDCF80918D0257
:102A30008360CFCF80918C028E7FC5CF80918D0235
:102A4000877FC7CF80918C028D7FBDCF80918C0214
:102A50008B7FB9CF80918C02877FB5CF80918D021B
:102A60008E7FB7CF80918D028D7FB3CF80918C0206
:102A70008F7EA9CF80918C028F7DA5CF80918C0213
:102A80008F7BA1CF0E94850680918C028F779BCF90
:102A900080918C02837F97CF80918D028C7F99CF1C
:102AA00080918C0282FB992790F921E0922790FB7C
:102AB00082F990FB83F987CF80918D02982F9095B2
:102AC00091708E7F892B90FB81F983CF90918C023E
:102AD000892F8F7B96FF806476CF0E948506909128
:102AE0008C02892F97FB87F980586DCF81E00E9477
:102AF000640C80918C0290918D020E94E90B0E94DF
:102B0000850680E0DF91CF91089580E0F0CF90912D
:102B10008C02892F8F7E94FF806155CF90918C021B
:102B2000892F8E7F90FF81604ECF90918D02892FEB
:102B3000877F93FF88604DCF81E0E4CFB0E0A0E0D5
:102B4000E4EAF5E10C946124E82FF0E0EC5EFE4F3E
:102B5000D490282F26952695269530E0F901EC543F
:102B6000FE4F0491877010E0082E02C0159507955E
:102B70000A94E2F701701127F901EC55FE4FE49039
:102B8000F12C082E02C0F594E7940A94E2F791E044
:102B9000E922FF24F901EC56FE4FC491D0E002C0B7
:102BA000D595C7958A95E2F7C170DD270115110506
:102BB00019F081EE0E949103E114F10419F086EE00
:102BC0000E9491038D2D0E942904E114F10419F053
:102BD00086EE0E94DE030115110519F081EE0E94B8
:102BE000DE03CD2B19F08CE20E942904CDB7DEB7AD
:102BF000E7E00C947D24EF92FF920F931F93CF9305
:102C0000DF93EC01162F0AE08881882309F454C071
:102C1000813009F04EC08981813099F47E0122E033
:102C2000E20EF11C8A810E942904E7012196812F7E
:102C3000815050F3EFE9FFE03197F1F700C0000059
:102C4000F7CF823041F47E0182E0E80EF11C8A81E8
:102C50000E949103EACF833041F47E01E2E0EE0E60
:102C6000F11C8A810E94DE03E0CF843011F02196AE
:102C7000DDCF2A81229690E080E0AE014F5F5F4F6A
:102C80002053330B2A30310548F0019778F2EFE9F1
:102C9000FFE03197F1F700C00000F7CF089FB001C7
:102CA000099F700D1124C901860F971F2981EA0120
:102CB000E4CF0E949E15BACFCDB7DEB7E6E00C9404
:102CC0007E248FE891E00197F1F700C0000008959D
:102CD000FF920F931F93CF93DF9382E0809359026B
:102CE00005E911E0C3E9D1E0AE01D80121E030E00F
:102CF0008D91E82FE295EF70F0E0F1A08F70B901AF
:102D000001C0660F8A95EAF7962F90959F2191A3AF
:102D100082A1862B82A3FA018191AF01E82FE2956F
:102D2000EF70F0E0F1A08F70B90101C0660F8A95D5
:102D3000EAF7962F90959F2191A382A1862B82A3DB
:102D4000F1E0A739BF07A1F60E9461166091590210
:102D50004CE552E0FA018E2F841B861728F0CDB780
:102D6000DEB7E5E00C947F24D8012D918D01A22FD0
:102D7000A295AF70B0E090968C9190E02F7002C059
:102D8000959587952A95E2F781709991A92FA2953B
:102D9000AF70B0E090962C9130E09F7002C03595F6
:102DA00027959A95E2F790E020FD92E0892B819398
:102DB000D2CFA4E1B0E0EFEDF6E10C945B2410E09B
:102DC00000E084E0C82ED12C9DEF992E88248394B6
:102DD0002CEF722E80915902181728F0802F6496DC
:102DE000EDE00C947724E12EF12CF701EB56FE4F29
:102DF0008081E82FE295EF70F0E0E0A1F0E08F70C5
:102E000002C0F595E7958A95E2F7E170D701AD56D6
:102E1000BE4F2C91A22FA295AF70B0E090968C91EE
:102E200090E02F7002C0959587952A95E2F780FD76
:102E300079C080E08E2BD701A45ABD4FEC919E2F14
:102E40009370981709F46CC0EE0FEE0FE82BEC931B
:102E5000EF70F0E0ED57FE4FC701865A9D4F5C01C1
:102E60008081F5019081890F808320E084302CF1EE
:102E7000F701E95AFD4F80818F5F80830E94AE1C6D
:102E80001B877C868D868160782F9F878E87412F58
:102E90005CEF61E08F850E944C030E94AE1C188B92
:102EA000798A1A8A8160782F9C8B8B8B412F5CEFFB
:102EB00060E08C890E944C0321E0F50180818D3F08
:102EC0002CF5F701E95AFD4F8081815080830E94E3
:102ED000AE1C19839A828B828160782F9D838C83AC
:102EE000412F5DEF61E08D810E944C030E94AE1C7A
:102EF0001E839F8218868160782F9A878987412F49
:102F00005DEF60E08A850E944C0321E0F50180813D
:102F1000082E000C990BB6010E9435248083022BE9
:102F20001F5F58CF82E086CF84E0089550E0440FC1
:102F3000551F96E0699F400D511D112492E1899F14
:102F4000400D511D1124CA01869608950F931F93B9
:102F5000CF93DF938430C8F46330B8F44330A8F4DF
:102F60000E9496178C010E94B724C82FD0E0DC2F56
:102F7000CC27C80101960E94B7249E01282BC901C5
:102F8000DF91CF911F910F91089590E080E0F8CFED
:102F90000F931F93CF93DF93122F032F843078F476
:102FA000633068F4433058F40E949617EC01602FA8
:102FB0000E94C524612FCE0101960E94C524DF9195
:102FC000CF911F910F910895FF920F931F93CF936D
:102FD000DF93F42E843070F5623060F528E0829F34
:102FE0008001112434E0639FB0011124060F171FE4
:102FF00002591F4F82E090E0442311F090E080E0FE
:10300000800F911F0E94B724C82FD0E0DC2FCC275F
:1030100083E090E0FF2011F081E090E0800F911FAD
:103020000E94B7249E01282BC901CDB7DEB7E5E089
:103030000C947F2490E080E0F8CF0F931F93CF9300
:10304000DF93142F022F843020F5623010F598E0C2
:10305000899FE001112484E0689FB0011124C60F0C
:10306000D71FC259DF4F82E090E0442311F090E077
:1030700080E0632F8C0F9D1F0E94C52483E090E0A9
:10308000112311F081E090E0602F8C0F9D1F0E94B2
:10309000C524DF91CF911F910F910895FF920F9357
:1030A0001F93CF93DF9310E000E0D0E0C02F1AC051
:1030B0000E94D30121E030E08017110639F034F08E
:1030C0004F2D6D2F8C2F0E94D5019C014F2D6D2F00
:1030D0008C2F0E94C817F39483E0F812E9CFDF5FCA
:1030E000D33011F0F12CE4CFD0E00E94F101801731
:1030F000110631F12CF141E06D2F8C2F0E94F3016C
:103100009C0141E06D2F8C2F0E941D1840E06D2F17
:103110008C2F0E94F3019C0140E06D2F8C2F0E94A8
:103120001D18D13059F40F5F1F4F0430110509F0FD
:10313000BCCFCDB7DEB7E5E00C947F24D1E0D5CF8E
:1031400021E030E041E06D2F8C2F0E941D1821E01E
:1031500030E0E2CFEF92FF920F931F93CF93DF9374
:10316000EC018A017C01E60EF71ECE018696CE1593
:10317000DF0529F4CDB7DEB7E6E00C947E24C83431
:10318000D10540F40E94B724F80180830F5F1F4FE0
:103190002196EBCFF8011082F9CFB0E0A0E0E3ED8B
:1031A000F8E10C9460247C016A018C01060F171F62
:1031B000EC01CE018696C017D10729F4CDB7DEB752
:1031C000E8E00C947C24C834D10540F4FE01EE19EB
:1031D000FF09EC0DFD1D60810E94C5242196E9CFF9
:1031E000843038F4633028F4433018F40E94A61772
:1031F000089590E080E00895843028F4623018F457
:103200000E94E417089590E080E0089580E1089519
:1032100082E793E00895EF92FF920F931F93CF936D
:10322000DF93EC018A017C01E60EF71ECE01825786
:103230009F4FCE15DF0529F4CDB7DEB7E6E00C943D
:103240007E24C23723E0D20740F40E94B724F8015D
:1032500080830F5F1F4F2196E9CFF8011082F9CFCD
:10326000B0E0A0E0E6E3F9E10C9460247C016A019F
:103270008C01060F171FEC01CE0182579F4FC0171C
:10328000D10729F4CDB7DEB7E8E00C947C24C2372F
:1032900023E0D20740F4FE01EE19FF09EC0DFD1DFD
:1032A00060810E94C5242196E7CFCF93DF93CEE8BB
:1032B000D0E060E0CE010E94C5242196C11584E0D3
:1032C000D807B9F7DF91CF910895A8E0B0E0EBE619
:1032D000F9E10C945E24F82E8FE08F1508F46EC08F
:1032E0008FEF93E00E94B724811168C00EE810E0D0
:1032F000F11035C0FE0131966F0188E011928A9578
:10330000E9F77801FFEFEF1AFF0AC8010E94B7241E
:1033100089831A82882309F451C08130D1F458017D
:1033200082E0A80EB11CC7010E94B7248A838823BB
:1033300009F444C09FEF980F9330F0F4780193E0C4
:10334000E90EF11CC5010E94B7248B838823B1F1DB
:103350001C8260E0C6010E94FB158701D2CF0115D7
:1033600094E0190759F1C8010E94B724811101C0E6
:10337000FA940F5F1F4FBCCF7501843051F702E004
:1033800010E07501EFEFEE1AFE0AC5010E94B724A6
:10339000F601E00FF11F8083882381F08C3741F420
:1033A000E2E0F0E0EC0FFD1FE00FF11F1082D1CF43
:1033B0000F5F1F4F57010730110519F72896EAE0F4
:1033C0000C947A24CF93DF93EB0186319C4711F55F
:1033D0000E94E00A9A81992399F08A7A91E009F48F
:1033E00090E090935E02811109C089E20E94B80AC0
:1033F0000E94210B80E0DF91CF91089585E3F6CF05
:1034000080915E02811104C089E20E94C00AF0CF5F
:1034100085E3FBCF81E0EFCF0F931F93CF93DF9333
:10342000C42FD22FFC0182818823C9F0409361020E
:103430000E94AE1C9093600280935F0280E28C0F2A
:10344000883040F4C77081E001C0880FCA95EAF760
:103450000E943204DF91CF911F910F910895109136
:103460006102141332C080915F02909160020E9449
:10347000C61C883C910548F5C0E2CD0F1D17B9F078
:1034800080E2810F883040F4177081E001C0880F1E
:103490001A95EAF70E943904C83048F481E09D2F5C
:1034A000977001C0880F9A95EAF70E943204802F26
:1034B0000E942904C83070F6D77081E001C0880FDF
:1034C000DA95EAF70E943904C5CF80E28C0F883084
:1034D00008F6C77081E001C0880FCA95EAF7F2CFFD
:1034E0000F93DB0188519C4787309105A0F5FC01C3
:1034F000E25CFA4D0C94492406E221EE41EE6AE1C9
:103500007CE7CD010E940C1A80E00F91089507E23C
:1035100025EE45EE6BE17CE7F4CF06E221EE40EECE
:1035200068E17CE7EECF07E225EE44EE69E17CE757
:10353000E8CF06E221EE42EE6CE17CE7E2CF07E263
:1035400025EE46EE6DE17CE7DCCF08E221E045EEBA
:103550006EE17CE7D6CF12968C91882319F01092F9
:103560006102D3CF81E0D1CF9093A7018093A601D0
:10357000089590936702809366020895E091660231
:10358000F0916702309729F00190F081E02D0995C4
:10359000089580E00895E0916602F0916702309707
:1035A00099F020911201222359F020918C0227FFDB
:1035B00007C0DC012C9111962C93119726E02C93D7
:1035C0000280F381E02D09950895E0916602F09163
:1035D0006702309739F022E0DC012C930480F581FA
:1035E000E02D09950895A3E0B0E0E9EFFAE10C942D
:1035F0006624209164023091650228173907A1F0F2
:103600009093650280936402E0916602F0916702F4
:10361000309751F023E029839B838A830680F781CA
:10362000E02DCE01019609952396E2E00C948224C8
:10363000A3E0B0E0EEE1FBE10C946624209162028D
:103640003091630228173907A1F0909363028093A9
:103650006202E0916602F0916702309751F024E037
:1036600029839B838A830680F781E02DCE01019612
:1036700009952396E2E00C948224FC013296809115
:103680001201882321F080918C029EE187FF96E051
:1036900080E0915008F4089521912223D1F38F5FA7
:1036A000F8CF662301F1209112012223F1F020913D
:1036B0008C0227FF1AC0462F4695469546954E31F7
:1036C00090F4677021E030E002C0220F331F6A954A
:1036D000E2F7840F911DFC01828190E028233923B9
:1036E00081E0232B69F480E00895FC01329608966E
:1036F0002191261721F0E817F907D1F7F4CF81E0DF
:1037000008959C01FC0132969FEF80E0419146179D
:1037100051F09F3F19F4411101C0982F8F5F8630FF
:10372000A9F79F3F09F40895290F311D97FD3A9598
:10373000F90162830895FC013296089621912613BF
:1037400003C0DF0111971C92E817F907B9F7089534
:10375000E62FE695E695E695EE3168F4E80FF92F49
:10376000F11D677021E030E001C0220F6A95EAF791
:103770008281822B82830895E62FE695E695E69571
:10378000EE3170F4E80FF92FF11D677021E030E0A1
:1037900001C0220F6A95EAF72095828128232283AF
:1037A000089520911201222339F020918C0227FFE5
:1037B00003C00E94A81B08950E94811B08952091B8
:1037C0001201222339F020918C0227FF03C00E94AE
:1037D000BC1B08950E949B1B0895FC0132968091AA
:1037E0001201882351F080918C0287FF06C08EE180
:1037F000DF011D928A95E9F7089586E0F9CF46E04A
:1038000050E00E94A12421E0892B09F420E0822FBE
:10381000089508950E94091C0895811106C081E051
:10382000809368020E940A1C089582E0F9CF83E029
:10383000809368020E940A1C08950E940D1C08953E
:1038400081E0809368020E940A1C08950E94201C57
:103850000895089508950E942A1C089508950895D2
:103860000E94291C0895CF930E942E1C0E942810AC
:103870000E942F1CC0E08C2F0E94790F811105C07F
:10388000CF5FC330C1F7CF91089581E0FCCF85B7FA
:10389000806885BF85B7806885BF08951F921FB671
:1038A0001F9211248F939F93AF93BF9380916902CE
:1038B000811113C08091940290919502A09196027B
:1038C000B09197024196A11DB11D809394029093EF
:1038D0009502A0939602B0939702BF91AF919F91EA
:1038E0008F911F901FBE1F90189580919C0284306D
:1038F00031F10E9400031092690288E190E020E417
:103900000FB6F894A895809360000FBE20936000D6
:1039100083B7817F846083BF83B7816083BF7894DE
:10392000889583B78E7F83BF0FB6F894A895809152
:103930006000886180936000109260000FBE08955F
:103940000E9485060E940503089582E084BD93E0ED
:1039500095BD9AEF97BD80936E0008952FB7F894A8
:103960008091940290919502A0919602B091970255
:103970002FBF08952FB7F89460919402709195022B
:1039800080919602909197022FBF08959C014FB7A6
:10399000F8948091940290919502A0919602B09132
:1039A00097024FBF821B930B089578941F921FB606
:1039B0001F9211248F939F93AF93BF938091940292
:1039C00090919502A0919602B09197020196A11D47
:1039D000B11D8093940290939502A0939602B093A8
:1039E0009702BF91AF919F918F911F901FBE1F9023
:1039F000189587E797E7909301088093000888E17E
:103A00009AE00FB6F894A895809360000FBE90934B
:103A10006000FFCF88E19AE00FB6F894A8958093F4
:103A200060000FBE90936000FFCF80918A020895DE
:103A30009B01BA0190919C029430E9F48F708093BD
:103A4000E9009FEF8091E800915085FD06C085ED6B
:103A50008A95F1F700009111F5CF8091E80085FF7C
:103A60000AC050E040E0C9010E945F1F8091E80059
:103A70008E778093E800089543E050E0BC0184E035
:103A80000E94181D089546E050E0BC0184E00E94A9
:103A9000181D0895CF93DF93EC01809112018111DD
:103AA00011C048E050E0BE0181E00E94181D80E294
:103AB000FE01AAE6B2E001900D928A95E1F7DF914E
:103AC000CF91089580918C0287FF05C040E284E089
:103AD00050E0BE01EACF48E081E0FACF603231F435
:103AE00040E250E0BC0182E00E94181D08958091E0
:103AF0009B02811109C00E943E210E949B2180915E
:103B0000E20084608093E200089510929B02089581
:103B10000E94201C08956091980281E0611101C00B
:103B200080E00E94171C089590919C0281E09430DF
:103B300009F080E0609198020E941D1C089542E007
:103B400061EC81E00E94BA2042E261EC84E00E94D4
:103B5000BA2042E261EC82E00E94BA2042E260ECCC
:103B600083E00E94BA2090919C0281E0943009F099
:103B700080E0609198020E940D1C089580919E0241
:103B8000833009F463C030F48130E1F1823009F40C
:103B9000A0C008958A3009F48CC08B3009F471C03C
:103BA000893009F052C080919D02813209F04DC0E8
:103BB0008091A1029091A202009719F0029709F05A
:103BC00044C08091E800877F8093E8008091E800FE
:103BD00082FF37C09091F3008091F200029731F498
:103BE0008091F100813011F0863021F48091F10054
:103BF00080938A028091E8008B778093E8000E948E
:103C0000EE2023C080919D02813AF9F48091E80072
:103C1000877F8093E8008091A1029091A202892B76
:103C200061F460E28AE692E070E00E94FD1F8091FC
:103C3000E8008B778093E800089560E090E080E0F2
:103C4000F3CF80919C028111C1CF089580919D0294
:103C5000813AD9F78091A1029091A202892BA9F70C
:103C60008091E800877F8093E8008091E80080FFE2
:103C7000FCCF809112018093F1008091E8008E7753
:103C8000BCCF80919D02813201F78091A102909179
:103C9000A202892BD1F68091E800877F8093E8000B
:103CA0000E94EE2080919F02809312010E9485065F
:103CB000089580919D02813241F68091E800877FCE
:103CC0008093E8000E94EE208091A00280938B02F6
:103CD000089580919D02813A09F0B7CF8091E80064
:103CE000877F8093E8008091E80080FFFCCF80917F
:103CF0008B02C1CF84B7877F84BF0FB6F894A89595
:103D000080916000886180936000109260000FBE17
:103D100080E890E00FB6F894809361009093610082
:103D20000FBE0E94261C08950E943E210E949B21E6
:103D3000E2EEF0E080818460808378940E941A240F
:103D400008958AE091E00E94B91A089580919C023A
:103D5000853031F480919C02853019F00E94A01CBE
:103D600008950E94751C80919A02882399F30E94FD
:103D7000331C882379F30E94491F0E948506EACFED
:103D8000A0E2B0E0E6ECFEE10C94662480919C0297
:103D9000843009F583E08093E9008091E80082FF98
:103DA0001AC08091E80090E085FF09C050E040E033
:103DB00060E270E0CE0101960E94AE1F91E080911A
:103DC000E8008B778093E800992329F060E2CE0128
:103DD00001960E94EB13A096E2E00C9482240E94CC
:103DE000F21E0895292F33272330310521F168F47D
:103DF0002130310509F443C02230310509F444C0B3
:103E000090E080E030E020E026C02132310551F121
:103E100022323105A9F76330710590F7FB01EE0FEF
:103E2000FF1FE656FE4F2081318169567E4FFB0110
:103E3000808190E010C099278130910581F0009732
:103E400029F00297E9F6E4ECF1E002C0EEEDF1E0D2
:103E5000849190E09F01FA01318320830895E2ED7F
:103E6000F1E0F6CF6330710558F6660F771FFB015E
:103E7000E056FE4F2081318189E090E0ECCF82E175
:103E800090E02DE332E0E7CF8BE590E022EE31E0E9
:103E9000E2CF80E189BD82E189BD09B400FEFDCF9A
:103EA0008091D8008F7D8093D8008091E00082605F
:103EB0008093E0008091E00081FDFCCF0895AF92F7
:103EC000BF92CF92DF92FF920F931F93CF93DF9316
:103ED0006C01EB018A010E940D21F82E811123C093
:103EE0000115110539F0F80180819181C81BD90BAA
:103EF000C80ED91EB12CA12C2097A9F08091E80002
:103F000085FD22C08091E8008E778093E80001153E
:103F10001105A1F0F80180819181A80EB91EB1822E
:103F2000A08285E0F82E8F2DDF91CF911F910F9108
:103F3000FF90DF90CF90BF90AF9008950E940D2129
:103F40008823D1F2F82EEFCFF60181916F01809393
:103F5000F1002197FFEFAF1ABF0ACECFAF92BF9209
:103F6000CF92DF92FF920F931F93CF93DF936C0159
:103F7000EB018A010E940D21F82E811123C0011549
:103F8000110539F0F80180819181C81BD90BC80E49
:103F9000D91EB12CA12C2097A9F08091E80085FDB5
:103FA00022C08091E8008B778093E800011511050D
:103FB000A1F0F80180819181A80EB91EB182A08282
:103FC00085E0F82E8F2DDF91CF911F910F91FF90FB
:103FD000DF90CF90BF90AF9008950E940D2188236D
:103FE000D1F2F82EEFCF8091F100F60181936F01AD
:103FF0002197FFEFAF1ABF0ACECFFC018091A30239
:104000009091A40286179707A0F06115710529F415
:104010009091E8009E779093E80090E0611571051B
:1040200051F4911108C08091E80082FF34C080E013
:104030000895BC01F2CF80919C028823C1F18530A4
:10404000C1F18091E80083FD30C08091E80082FDDD
:10405000EACF8091E80080FFE1CF8091F3002091CA
:10406000F200382F6115710519F02830310558F02C
:1040700091E02830310509F090E02091E8002E779A
:104080002093E800CBCF81918093F10061507109BA
:104090002F5F3F4FE7CF80919C02882341F085300E
:1040A00041F08091E80083FFBECF81E0089582E077
:1040B000089583E00895FC018091A3029091A402E9
:1040C00086179707A0F06115710529F48091E80023
:1040D0008E778093E80090E06115710551F491119D
:1040E00008C08091E80082FF35C080E00895BC01DF
:1040F000F2CF80919C028823C9F18530C9F180916B
:10410000E80083FD31C08091E80082FDEACF809114
:10411000E80080FFE1CF8091F3002091F200382F7A
:104120006115710519F02830310558F091E02830FB
:10413000310509F090E08091E8008E778093E800E7
:10414000CBCF84918093F1003196615071092F5F3C
:104150003F4FE6CF80919C02882341F0853041F0AB
:104160008091E80083FFBDCF81E0089582E008954B
:1041700083E00895982F973028F08F708093E9009E
:1041800081E008959093E900242F762F50E098174E
:1041900031F07091EC002091ED005091F00021FD84
:1041A00002C09F5FE8CF3091EB003E7F3093EB0081
:1041B0003091ED003D7F3093ED003091EB003160A8
:1041C0003093EB007093EC002093ED005093F000DF
:1041D0002091EE0027FDE5CF80E0089580919D02BB
:1041E00087FF13C08091E80082FF06C08091E8003D
:1041F0008B778093E80004C080919C028111F2CFFC
:10420000089580919C028823D9F38091E80080FF73
:10421000F8CF8091E8008E77ECCF2091E4003091C8
:10422000E50095E6A9012091EC00822F817020FF26
:1042300006C08091E80080FF06C080E008952091CC
:10424000E80022FD1AC080919C02882389F0853005
:1042500089F08091EB0085FD0FC02091E400309142
:10426000E50042175307F9F29150E1F684E0089512
:1042700082E0089583E0089581E008950E94AD21D1
:104280000E94B521E0EEF0E0808181608083E8ED5E
:10429000F0E080818F77808319BCA7EDB0E08C912E
:1042A0008E7F8C9380818F7E808310929B020895F5
:1042B0000F931F93CF93DF930E94AD210E94B521EE
:1042C000C8EDD0E088818F77888388818068888373
:1042D00088818F7D888319BC10929C02109298026D
:1042E00010929A021092990200EE10E0F80180817B
:1042F0008B7F808388818160888342E060E080E0FA
:104300000E94BA20E1EEF0E080818E7F8083E2EEB1
:10431000F0E0808181608083808188608083F80103
:1043200080818E7F8083888180618883DF91CF91B7
:104330001F910F910895E8EDF0E080818F7E8083DA
:10434000E7EDF0E080818160808384E082BF81E0DE
:1043500080939B020E9458210895E8EDF0E080814F
:104360008E7F80831092E20008951092DA001092FE
:10437000E10008951F920F920FB60F9211242F9310
:104380003F934F935F936F937F938F939F93AF93DD
:10439000BF93EF93FF938091E10082FF0BC0809168
:1043A000E20082FF07C08091E1008B7F8093E100F3
:1043B0000E9419248091DA0080FF19C08091D800F2
:1043C00080FF15C08091DA008E7F8093DA008091A3
:1043D000D90080FF96C080E189BD82E189BD09B422
:1043E00000FEFDCF81E080939C020E94771D8091AA
:1043F000E10080FF19C08091E20080FF15C080912C
:10440000E2008E7F8093E2008091E20080618093E1
:10441000E2008091D80080628093D80019BC85E0CA
:1044200080939C020E948B1D8091E10084FF2BC031
:104430008091E20084FF27C080E189BD82E189BDCF
:1044400089B5982F917080FFFBCF8091D8008F7D28
:104450008093D8008091E1008F7E8093E10080916D
:10446000E2008F7E8093E2008091E2008160809381
:10447000E20080919802882309F449C084E0809387
:104480009C020E94941D8091E10083FF29C08091CD
:10449000E20083FF25C08091E100877F8093E100E7
:1044A00082E080939C02109298028091E1008E7FBE
:1044B0008093E1008091E2008E7F8093E200809102
:1044C000E20080618093E20042E060E080E00E94D0
:1044D000BA208091F00088608093F0000E94881DCF
:1044E000FF91EF91BF91AF919F918F917F916F91CC
:1044F0005F914F913F912F910F900FBE0F901F90A2
:10450000189519BC10929C020E94851D70CF809155
:10451000E30087FD93E090939C02B3CF1F920F922C
:104520000FB60F9211242F933F934F935F936F9386
:104530007F938F939F93AF93BF93CF93DF93EF932B
:10454000FF93D091E900DF708091EC00C82FC1701B
:1045500080FDC0E81092E9008091F000877F809391
:10456000F00078940E94D2221092E9008091F0002D
:1045700088608093F000CD2BCF70C093E900FF914D
:10458000EF91DF91CF91BF91AF919F918F917F91EB
:104590006F915F914F913F912F910F900FBE0F90B0
:1045A0001F901895AAE2B0E0E8EDF2E20C946524C1
:1045B0008DE992E02091F100FC012193CF01F2E01E
:1045C000853A9F07B9F70E94BE1D8091E80083FFDE
:1045D0001EC180919D0290919E029A3008F017C1F1
:1045E000E92FF0E0EB5BFA4D0C944924803899F008
:1045F000823809F00CC18091A1028F70873008F0D9
:1046000006C18093E9008091EB0085FB882780F943
:104610001092E90006C08091990290919A0291113E
:1046200082609091E800977F9093E8008093F1007A
:104630001092F1008091E8008E77E5C0882309F49C
:10464000D3C0823009F0E3C080919F028111D6C0AF
:104650008091A1028F702FEF280F263008F0D7C06D
:104660008093E9002091EB0020FFC8C0933031F423
:104670008091EB0080628093EB00C0C09091EB00D2
:1046800090619093EB0021E030E001C0220F8A9509
:10469000EAF72093EA001092EA008091EB0088602C
:1046A000EACF8111B4C010919F021F778091E3007F
:1046B0008078812B8093E3008091E800877F80934E
:1046C000E8000E94EE208091E80080FFFCCF8091FE
:1046D000E30080688093E30082E0111183E080931F
:1046E0009C0295C08058823008F091C080919F0252
:1046F0009091A0028C3D23E09207A1F583E08A838C
:104700008AE289834FB7F894DE01139620E03EE0F9
:1047100051E2E32FF0E050935700E49120FF03C0F3
:10472000E295EF703F5FEF708E2F90E0EA30C0F0BF
:10473000C7968D939D932F5F243159F74FBF80917A
:10474000E800877F8093E8006AE270E0CE0101967E
:104750000E94FD1F8091E8008B778093E80057C08E
:10476000C096E7CF6091A1027091A202AE014F5FA7
:104770005F4F0E94EF1EBC01892B09F448C0909145
:10478000E800977F9093E80089819A810E945B20DE
:10479000E1CF8038E1F58091E800877F8093E800E1
:1047A000809198028093F10045CF811130C09091A3
:1047B0009F02923060F58091E800877F8093E80047
:1047C000909398020E94EE2080919802882311F025
:1047D00084E005C08091E30087FDFACF81E08093FB
:1047E0009C020E949F1D13C080919F02813079F42A
:1047F00081E0933009F080E080939A021092E90002
:104800008091E800877F8093E8000E94EE208091ED
:10481000E80083FF0AC08091E800877F8093E8006A
:104820008091EB0080628093EB00AA96E3E00C9409
:1048300081240895CF9380919C028823A1F0C09198
:10484000E900CF709091EC00892F817090FD80E895
:10485000C82B1092E9008091E80083FD0E94D222CB
:10486000CF70C093E900CF91089597FB072E16F4FF
:10487000009407D077FD09D00E948D2407FC05D055
:104880003EF4909581959F4F0895709561957F4F67
:104890000895EE0FFF1F0590F491E02D099469270C
:1048A0009627692778278727782708952F923F92A0
:1048B0004F925F926F927F928F929F92AF92BF9230
:1048C000CF92DF92EF92FF920F931F93CF93DF93DC
:1048D000CDB7DEB7CA1BDB0B0FB6F894DEBF0FBE39
:1048E000CDBF09942A88398848885F846E847D8486
:1048F0008C849B84AA84B984C884DF80EE80FD8088
:104900000C811B81AA81B981CE0FD11D0FB6F894FD
:10491000DEBF0FBECDBFED010895AA1BBB1B51E149
:1049200007C0AA1FBB1FA617B70710F0A61BB70B1F
:10493000881F991F5A95A9F780959095BC01CD01C4
:104940000895FB01DC0104C08D910190801921F4D0
:1049500041505040C8F7881B990B0895FB01DC01BA
:1049600002C001900D9241505040D8F70895F99936
:10497000FECF92BD81BDF89A992780B50895A8E130
:10498000B0E042E050E00C94EB24262FF999FECFE2
:1049900092BD81BDF89A019700B4021639F01FBA92
:1049A00020BD0FB6F894FA9AF99A0FBE08950396AF
:1049B000272F0E94C6240E94C524252F0E94C624AA
:1049C000242F0C94C6240196272F0E94C6240C94F1
:1049D000C524DC01CB01FC01F999FECF06C0F2BD74
:1049E000E1BDF89A319600B40D9241505040B8F7AD
:1049F0000895F894FFCF7B047B04AC04AC043E051F
:104A00005A05DB04DB045F05C605D505D505FD1396
:104A100008143314451450145B145E145E145E14B1
:104A20000E140E14631467146F147C1489148C1400
:104A30008F149C14A914B3141A158E152215EC1496
:104A4000F0142615F4142A153615001587150415CB
:104A50003A1508153E1566150C1542156D151215FB
:104A600048155015F8142E15FC14321516154C1552
:104A70005C1576158515E6141E1595158D1A931A75
:104A80007C1A871A991A9F1AA51AF6221E23072440
:0E4A90001E230724512372230724C923D52394
:104A9E001302280850011E0A1401151D4A1D431D3C
:104AAE003C1D01E200E900EA00B500B600B700CDFA
:104ABE00008301CC008A0192019401210223022479
:104ACE00022502260227022A02B300B4006F0070EC
:104ADE00009F01CB01818283E200E900EA00B5006C
:104AEE00B600B700CD008301CC008A01920194017B
:104AFE002102230224022502260227022A02B300E3
:104B0E00B4006F0070009F01CB018182839194905D
:104B1E00F4F5F600FF0100010000FFFF00000100A8
:104B2E0001FF00F73331324022B627034F027102E4
:064B3E00F4010D022D023E
:00000001FF
