:100000000C946A020C9487020C9487020C94870269
:100010000C9487020C9487020C9487020C9487023C
:100020000C9487020C9487020C9447320C941B3377
:100030000C94582C0C9487020C9487020C94870221
:100040000C9487020C9487020C9487020C9487020C
:100050000C9487020C94FB2C0C9487020C9487025E
:100060000C9487020C9487020C9487020C948702EC
:100070000C9487020C9487020C9487020C948702DC
:100080000C9487020C9487020C9487020C948702CC
:100090000C9487020C9487020C9487020C948702BC
:1000A0000C9487020C9487020C948702FA00F900E2
:1000B000A900AA00C55CC65CC75CC85CC95CCA5C18
:1000C000CB5CCC5CC35CC45C50004F0024002500BA
:1000D00026002100220023001E001F002000240013
:1000E000250026002100220023001E001F00200002
:1000F00001000100010001000100010001000100F8
:1001000001000100010001000100010001000100E7
:1001100001000100FD377A585A000004E6D6B446C3
:100120000200210116000000742FE5A3E00258012F
:10013000055D003D8889C65436C3174FE4E7E3B038
:10014000AFE12E01F6D32D8E1E8C1AEF22D1AAC557
:10015000DE501B79EC2A966F3C4A5FAB220AB7440B
:10016000AEA65CD62A580B57B76F96D256CD66030B
:10017000346B0DEE4D306F457188CABFBA082E1A28
:10018000DB43938200BF433449647EB3653AC65B68
:10019000AF2EBE7D0D064ABCD89EC73C8BB05743E0
:1001A0004C18F5E52D07B4134E49F5CF79B96635EE
:1001B00010E4A4AAC33B7FC5EFB494E2C2F7C4061F
:1001C000EB14F1316F0EB47EDDCCBF913E11F21114
:1001D000E0D7C1EA8F1EA7FE0CD758422BCB5C9606
:1001E00084E7F9451F10772EF1004EA189A5ACA137
:1001F000209E95A7A8E979BF30F7ACA0D51A72E484
:10020000D686676E511D6F46850D18A40A9C473827
:10021000DDC4DA8B808E70D8E4274CBBE03A44D63C
:10022000E3AF485A9F8A0D3B20D863545F7FDA784A
:10023000F120004768F74E87000000007338EBF3A9
:1002400041A655710001A102D9040000391B803775
:10025000B1C467FB020000000004595A000000000E
:10026000000000002A2B2800000000000000000011
:100270000000000000000029000000002C1E3420B7
:10028000212224342627252E362D3738271E1F20DD
:100290002122232425263333362E37381F04050622
:1002A0000708090A0B0C0D0E0F1011121314151666
:1002B0001718191A1B1C1D2F3130232D3504050664
:1002C0000708090A0B0C0D0E0F1011121314151646
:1002D0001718191A1B1C1D2F3130354C0000000057
:1002E000000000000000000000000000000000000E
:1002F00000000000000000000000000000000000FE
:100300007E0F00D4FFFFFFC7000000781C037600BB
:10031000690061006C003A0066003600340063003A
:10032000320062003300630000000C0356004F00EF
:1003300049004400390000000A0356004F004900FC
:10034000440000000403090409025B00030100A04B
:10035000FA09040000010301010009211101000153
:10036000224000070581030800010904010002037F
:10037000000000092111010001222200070582036B
:100380002000010705030320000109040200010306
:1003900000000009211101000122BC0007058403AF
:1003A000200001120100020000000855F034350061
:1003B00001010203010660FF0961A1010962150044
:1003C00026FF009520750881020963150026FF00AD
:1003D000952075089102C005010902A10185020955
:1003E00001A10005091901290515002501950575CB
:1003F000018102950175038101050109300931155B
:1004000081257F95027508810609381581257F951C
:100410000175088106050C0A38021581257F9501B2
:1004200075088106C0C005010980A1018503190175
:100430002AB700150126B700950175108100C00587
:100440000C0901A101850419012AA002150126A0A9
:1004500002950175108100C005010906A1018506FC
:10046000050719E029E715002501950875018102A6
:100470000507190029EF1500250195F07501810286
:100480000508190129059505750191029501750366
:100490009101C005010906A101050719E029E71529
:1004A00000250195087501810295017508810105F6
:1004B00007190029FF150026FF0095067508810021
:1004C0000508190129059505750191029501750326
:1004D0009101C00011241FBECFEFDAE0DEBFCDBF17
:1004E00011E0A0E0B1E0E4E3FCE602C005900D926B
:1004F000A23BB107D9F724E0A2EBB1E001C01D9205
:10050000A33FB207E1F70E9461130C94AE350C943F
:10051000000084E0089584E008959C013A95211537
:100520003F4150F5FC01EE27F170BC016627727067
:10053000AC01442754709C012227387094FF0EC0F0
:1005400080E1EF2B09F480E0672B09F08062452BF6
:1005500009F08064232B89F08068089581E0EF2BF7
:1005600009F480E0672B09F08260452B09F0846074
:10057000232B19F08860089580E00895CF93DF93CE
:10058000EB010E948D02FE010995DF91CF91089544
:10059000CF93DF93EC01805E9109089720F06AEB1E
:1005A00077E0209711F46BE375E0CE010E94BE0264
:1005B0008C2F0E949704DF91CF910895CF93DF9302
:1005C000EC010E94E804CE01805E9109089720F0BA
:1005D00061EC77E0209711F462E475E0CE010E94AF
:1005E000BE02DF91CF91089581E0089581E00895E2
:1005F0000E94F602089508950E94FB020895A5E066
:10060000B0E0E5E0F3E00C94F23449835A83309192
:10061000B90189819A81311119C0662399F0222389
:1006200089F00E942C09182F682F89819A810E94D5
:10063000F30869817A81812F0E94471E2596E3E0A5
:100640000C940E350E940F09182FF3CF0E942C092D
:1006500069817A81F1CFFC01262F868197810097ED
:1006600039F4408151816281738184810E94FF024B
:100670000895CF93DF93EC0161E00E942B03BE014C
:100680000E945C23DF91CF910895CF93DF93EC011B
:1006900060E00E942B03BE010E94FC02DF91CF911B
:1006A0000895E1E0F0E0DF0102C0AA0FBB1F6A95E8
:1006B000E2F7BD01DF0102C0AA0FBB1F4A95E2F7B6
:1006C0006A2B01C0EE0F2A95EAF7962F982396130E
:1006D00002C08E2B0895E0958E230895242F462F77
:1006E000682F8091C3010E9451030E94530808950E
:1006F0000E94201208950E942412089508950E94D5
:10070000DE070E947E032FEF84E39CE021508040AF
:100710009040E1F700C0000008950E947F030E940E
:100720001F2D08950E947F030E94302D08950F937E
:100730001F93CF93DF93EC018B010E94282AB8010D
:10074000CE010E946F16811106C080E0DF91CF912B
:100750001F910F910895B801CE010E94B61B882306
:10076000A1F3B801CE010E94F802882371F3B80109
:10077000CE010E947927882341F3B801CE010E945F
:10078000492A882311F3B801CE010E9497298823B2
:10079000E1F2B801CE010E9434268823B1F2F801BB
:1007A0008281882361F0CA35FDE5DF0701F158F445
:1007B000C115ECE5DE0791F0CE3DDC4591F0C801B6
:1007C0000E94F402C3CFCC358DE5D80769F090F0D4
:1007D000C73ADD45A1F70E949203B7CF0E948D036F
:1007E000B4CF0E941E0FF7CF0E94580EE8CF0E9490
:1007F000620EE5CF0E94660EE2CFCF93DF93EC014D
:1008000061E00E942B03BE010E949703DF91CF910C
:1008100008950E94352C0E94260408950E942A04FF
:100820000E943A2C089508950E941304089581E0CF
:1008300008950E94170408950895CF93C82F0E9429
:1008400014048C2F0E941904CF91089580E00E9417
:100850001D0408950E94E62A0E941D040895CF9366
:100860000E94E62AC82F8091B4018C1779F0C093BA
:10087000B4010E94C42C6093B5017093B6018093BB
:10088000B7019093B8018C2F0E941D04CF91089559
:10089000ADE0B0E0EEE4F4E00C94F33449875A871D
:1008A0006B877C878D8761110E94570D1D821E8288
:1008B0001F82188685E0FE013996DE0111960190AF
:1008C0000D928A95E1F78091890482FF0CC00E9405
:1008D000170D882319F082E00E94270E0E94FE0C5B
:1008E00081110E94910D8C819D81892B71F4298148
:1008F0003A814B815C816D817E818F8198850E94D8
:100900004D0C2D96E2E00C940F3589819A81892354
:100910008F3F69F3CE0101960E9439038111E7CF21
:10092000F0CFFC01808191810E9459090895CF93F5
:10093000C82F8823E1F08CEF8C0F813AD0F48C2FF4
:100940000E947925811113C06C2F80910001909134
:1009500001010E945B2B882329F08C2F0E94EC0C54
:100960000E949F0D8C2F0E94E40C0E949F0DCF913E
:10097000089580E28C0F883048F4C77081E001C090
:10098000880FCA95EAF70E94370DEFCFEBE5EC0F21
:10099000E33040F4F0E0EB5AFE4F808190E00E949B
:1009A0001B2BE5CFE8E5EC0FE73150F4F0E0EE0F5C
:1009B000FF1FE95DFE4F808191810E94312BD7CFCF
:1009C000C03FA8F28C2F0E94E5130E94D014CFCF15
:1009D000882379F19CEF980F913A28F40E94EC0C4F
:1009E0000E949F0D089590E2980F983050F4877000
:1009F00091E001C0990F8A95EAF7892F0E943D0D79
:100A0000EFCF9BE5980F933028F490E080E00E94B0
:100A10001B2B089598E5980F973128F490E080E01B
:100A20000E94312B0895803F20F00E944D140E94B7
:100A3000D01408951F93CF93DF93182FEB010E94DA
:100A40009704209739F4812F0E94E804DF91CF9119
:100A50001F9108958FE99FE00197F1F700C0000012
:100A60002197EFCF70E060E0893311F460E570E02A
:100A70000E941A050895882321F00E94370D0E94D4
:100A80009F0D0895882321F00E943D0D0E949F0D27
:100A90000895B0E0A0E0EFE4F5E00C94EC346C01D4
:100AA000D62FC72FFC010281F580F2949FE0F92236
:100AB0000E942D0DE82E8823B9F0E02E0023A1F02E
:100AC0008C2F807F803421F080E28D0F8830D0F031
:100AD0008091890482FF16C082E00E94270E0E9446
:100AE0002D0D91E0E82EE926BC2EB2948FE0B822BD
:100AF000FBE0FB1508F468C0EB2DF0E0E055FA4C84
:100B00000C94D634E12CF0CF1C2F1F70C07F11F055
:100B10001295107F002399F0112359F080E28D0F78
:100B2000883010F0D11107C0812F0E94370D0E942C
:100B30009F0D8D2F41C0812F0E944A0DF8CF8D2F20
:100B40000E94E804112309F43FC080E28D0F883031
:100B500010F0D11104C0812F0E943D0D03C0812FE0
:100B60000E94500D0E949F0D2FC01C2F1F70C07F30
:100B7000C03211F01295107FDD2381F0D13009F4DD
:100B800082C0002309F48BC0FF2009F45BC0F6018A
:100B9000858180FFCECF8F70858354C0809189047A
:100BA00082FD33C0002359F0112329F0812F0E94C8
:100BB000370D0E949F0D80E00E94970405C080E0E1
:100BC0000E94E8041111C7CFEB2DE850FF0B3497BA
:100BD00020F40E94E62A0E941D04EE2089F00E9463
:100BE000130D80FD0DC0F60112820E940D0D0E94B2
:100BF0006708C6010E9490070E940D0D0E947308AD
:100C0000CDB7DEB7E9E00C9408350023E9F0F11028
:100C100006C00E94660D812B0E943B05D5CF21E0C6
:100C2000F21206C00E94660D812B0E947A0DCCCF75
:100C300035E0F312EECF0E94910D0E94FB0C812B48
:100C40000E946D0D812FE8CFF11003C00E94910D1D
:100C500011C081E0F81212C00E94340D812309F402
:100C6000B3CF0E94910D0E94FB0C912F9095892388
:100C70000E946D0D812F0E944205A6CF95E0F916C6
:100C800009F4A2CFE3CF002329F0E5E0EF1508F443
:100C90009BCFD8CFF4E0FF1508F496CFEBCFFF2021
:100CA00049F3D93349F4FFEF27EE33E0F150204008
:100CB0003040E1F700C000008D2F0E94E80484CF8F
:100CC0008C2F86958695837069F0813009F07CCFF2
:100CD0008D2F9C2F9370011102C090E080E00E9444
:100CE000312B72CF8D2F9C2F9370011102C090E099
:100CF00080E00E941B2B68CF8D2F002329F00E94DB
:100D0000E5130E94D01460CF0E944D14FACF8C2FAF
:100D1000837079F5011158CF4D2F42954695477054
:100D2000440F440F8D2F8F70042E01C0880F0A943A
:100D3000EAF72D2F2071D4FF07C02FE030E001C06B
:100D4000220F4A95EAF72095C695C695C370822B67
:100D5000C23049F058F4C13019F00E94410834CF34
:100D60000E943B0831CF0E9447082ECF0E943808CE
:100D70002BCF8695002311F08C2F8170882309F4E6
:100D800023CF4D2F429546954770440F440F8D2F2A
:100D90008F70042E01C0880F0A94EAF72D2F20715E
:100DA000D4FF07C02FE030E001C0220F4A95EAF7D8
:100DB0002095C695C695C370822BC23049F058F471
:100DC000C13019F00E949208FFCE0E948C08FCCE20
:100DD0000E949808F9CE0E945308F6CECF700023E7
:100DE00029F08C2F0E9467088D2F16CF8D2F0E941F
:100DF00042058C2F0E947308E7CED23F51F160F478
:100E0000D03FB9F0D13F81F0002309F45AC0F1106E
:100E100090CE8C2F8F7121C0D33F11F1D43FA1F719
:100E20008091890482FD26C08C2F8F71002311F3DD
:100E300014C0002349F084E08F1508F4C5CE8C2F30
:100E40008F710E948008C0CE95E09F1508F4BCCE3B
:100E5000F6CF8C2F8F710111CDCF0E946708B4CED1
:100E6000002329F08C2F8F710E945E08ADCE0E9466
:100E70005A08AACE0023C1F00E94130D843041F419
:100E80000E941D0E8C2F8F710E947308E12C9CCE46
:100E9000E4E0EF15D8F3CF718C2F0E94670863E070
:100EA0008C2F0E94FF0DF2CFF4E0FF1530F40E946A
:100EB0001D0E64E08C2F8F71F4CF81E00E94270E0D
:100EC000E5CFFF2059F0D93309F0F6CE2FEF37EEFA
:100ED00083E0215030408040E1F7ECCE8C2F8F71C1
:100EE00089CF0F931F93CF93DF93EC018E819F8166
:100EF000009781F00E940C108C010E949E080E94B5
:100F00003708B801CE010E944905DF91CF911F91AA
:100F10000F910895688179818A810E946409ECCFDC
:100F2000CF93DF93EC018B819C81892B29F0888101
:100F3000998189238F3F51F4DF91CF910895CE019C
:100F40000E947107CE010E944503F6CFCE010E9498
:100F5000FD038111F4CF0E942D0D882369F38A814E
:100F6000882351F38091890482FFE6CF82E00E94BA
:100F7000270EE2CF882321F00E944A0D0E949F0D88
:100F80000895882321F00E94500D0E949F0D08951E
:100F900090E080E00E941B2B90E080E00E94312BCB
:100FA0000E94570D0E949F0D0E94EC140E94D014C5
:100FB00008950E94F40C0E94C80708950E94440DF1
:100FC0000E94D907089592959F70963091F058F439
:100FD000925F9F70923058F4803F19F030F4883E51
:100FE00030F481E008959A5FF4CF843FD1F380E03C
:100FF0000895883EB0F3813FD1F7F3CFFC018381A0
:101000009481892B29F08081918189238F3F39F444
:1010100080E008950E940C100E94E30708958681E5
:1010200097810097B9F7808191810E945909F4CF87
:10103000A5E0B0E0EEE1F8E00C94F3342596E2E0B0
:101040000C940F35A8E0B0E0E8E2F8E00C94F3343B
:101050002896E2E00C940F3508950E942C0808951C
:101060000E942D088093C4010E94C8070895089526
:101070000E94300808959091C401892B0E94300885
:1010800008959091C40189230E9430080895909199
:10109000C40189270E94300808950E942C080895F1
:1010A0000E944D0808950E9450088093C3010E9439
:1010B000C807089580E00E945308089591E001C098
:1010C000990F8A95EAF7892F0E945308089521E025
:1010D00030E001C0220F8A95EAF78091C301822B8C
:1010E0000E945308089521E030E001C0220F8A9544
:1010F000EAF720958091C30182230E945308089546
:1011000021E030E001C0220F8A95EAF78091C30107
:1011100082270E94530808959091C301892B0E9451
:10112000530808959091C30189230E94530808959C
:101130009091C30189270E94530808950895262F8E
:10114000277091E001C0990F2A95EAF723E0769580
:1011500067952A95E1F7FB01EE0FFF1FE60FF71FDA
:10116000E40FF51F50E040E0682F70E08191DF014F
:1011700011979B01042E02C0369527950A94E2F739
:10118000217021952827292328272C934F5F5F4F13
:101190004330510559F70895A82FA77023E096957D
:1011A00087952A95E1F7FC01EE0FFF1FE80FF91F65
:1011B000E60FF71F50E040E080E0219130E00A2E7A
:1011C00002C0369527950A94E2F721703327042E42
:1011D00001C0220F0A94EAF7822B4F5F5F4F433022
:1011E000510559F70895282F862F903F79F09330B5
:1011F00070F4233058F4622F70E023E0929F600D6A
:10120000711D11244DEB51E00E949F0808959C5FD1
:101210009230E0F7622F70E04AEB51E0F5CF903F5B
:10122000C9F0933080F48330A8F4282F30E06DEBC0
:1012300071E0A901E3E09E9F400D511D1124CA01F8
:101240000E94CC0808959C5F923020F46AEB71E014
:1012500090E0F6CF80E00895CF92DF92FF920F9357
:101260001F93CF93DF936C010091C3018091C40160
:10127000082BC7E0D0E010E0FC2EC8010C2E02C005
:10128000959587950A94E2F780FD0CC02197A0F709
:10129000F12C8F2DDF91CF911F910F91FF90DF9057
:1012A000CF900895B6018C2F0E94FE10019771F324
:1012B000F0CFCF93DF93EC010E942C09BE010E9476
:1012C000FE10DF91CF9108951F93CF93DF93EB0131
:1012D0009091B901992339F0CB010E945909DF910E
:1012E000CF911F910895882369F0CB010E942C09AA
:1012F000182F682FCE010E94F308BE01812F0E9493
:10130000FE10EDCFCB010E940F09182FF6CFCF931F
:10131000DF93C091C5018091C6018C1303C0DF919A
:10132000CF910895D0E0FE0183E0EE0FFF1F8A9574
:10133000E1F7E953FE4F208131814281538164817D
:101340007581868197810E9422082196C770E3CF1C
:1013500020910702309108024091090250910A023F
:1013600060910B0270910C0280910D0290910E021F
:101370000E9422080895EF92FF920F931F93CF933C
:10138000DF9380910C02807F31F480910902C0913B
:10139000C501811117C0CDB7DEB7E6E00C940B355F
:1013A00020910A0230910B02D0E02115310541F065
:1013B0008091070290910802482F49234F3F39F44A
:1013C0002196C7708091C6018C13EACFE4CF8E01BD
:1013D00043E0000F111F4A95E1F7F801E953FE4F72
:1013E00041814913EDCF90819813EACF8281811119
:1013F000E7CFE380F480E21AF30A60E087E092E04E
:101400000E942B0367E072E00E949A1BE816F9061F
:10141000B8F680910C028F70806180930C02F80105
:10142000E453FE4F80818F708061808387E092E07B
:101430000E9490070E948709AECFA5E1B0E0E3E2E9
:10144000FAE00C94E7348C0185E0F801DE01519656
:1014500001900D928A95E1F7D8011296FC9047E031
:10146000842E42E0942E20910A0230910B02211525
:10147000310541F0809107029091080289238F3F46
:1014800009F0AFC1F110F6C0C8010E94900765C015
:1014900090E0FC0133E0EE0FFF1F3A95E1F7E953CE
:1014A000FE4F3181371106C03081361103C03281C1
:1014B000F31211C001968770D5C19F7019F088236F
:1014C00009F4E9C1805E883008F4E5C1C8010E94D2
:1014D0009007ED2C0DC1FF2009F40AC180910C0288
:1014E000816080930C02E12C03C1892B49F080912B
:1014F000070290910802282F29232F3F09F0FDC0F1
:10150000C8010E94FE07882309F4BECFFF2009F41A
:10151000BBCF80910C028032A0F020910702309165
:1015200008023A8729871B86DD86CC868E878091C4
:101530000D0290910E02988B8F87CE0109960E9422
:10154000900788E0F801A7E0B2E001900D928A953B
:10155000E1F70E94BB090E94A809EE24E394C8C0E9
:10156000211114C07C2DDD8ACC8AA3016F2D8D89B9
:101570000E94180887E092E00E94900788E0F4013A
:1015800011928A95E9F70E94A809ADCF80910A02CD
:1015900090910B02892B49F08091070290910802EB
:1015A000282F29232F3F09F0D1C0C8010E94FE0730
:1015B000882309F469CFFF2009F466CF80910C02DB
:1015C000803208F4BECF20910702309108023A839E
:1015D00029831B82DD82CC828E8380910D029091C3
:1015E0000E0298878F83CE010196A9CF60E087E035
:1015F00092E00E942B0367E072E00E949A1BA816FB
:10160000B90650F5EF2CFF2009F43ECF80910A0275
:1016100090910B02892B49F080910702909108026A
:10162000282F29232F3F09F0B6C0C8010E94FE07CA
:10163000811187CF80910C02816080930C02C801D8
:101640000E94900755C088E0F801A7E0B2E0019041
:101650000D928A95E1F74CC07C2DDD8ACC8AA301DE
:101660006F2D8D890E94180888E0D4011D928A95FB
:10167000E9F769C0C8010E94FE07E82E882309F433
:1016800003CF88E0F801A7E0B2E001900D928A95BF
:10169000E1F787E092E00E9491040E94BB0953C0E9
:1016A00081E08F25D6C0F80121812913C9C0F80136
:1016B00090819813C5C020910D0230910E02868151
:1016C00097812817390709F0BBC0F110B9C0809184
:1016D0000C028F70806180930C020E94A80987E041
:1016E00092E00E94900780910C02D80115968C938D
:1016F0008E2D6596EEE00C940335D80111962C9151
:101700002913FECED8019C919813FACE20910D0298
:1017100030910E0216968D919C91179728173907D4
:1017200009F0EECEF110ECCE80910C0215968C9360
:10173000C8010E94900788E0F801A7E0B2E001909C
:101740000D928A95E1F70E94A809D2CFF801218174
:1017500029132BCFD8019C91981327CF20910D02EC
:1017600030910E0216968D919C9117972817390784
:1017700009F01BCFF11019CF80910C0215968C93B4
:10178000C8010E949007E7E0F2E088E0DF011D92C7
:101790008A95E9F7ADCFD80111962C91291345CF41
:1017A000F8019081981341CF20910D0230910E02E3
:1017B000868197812817390709F037CF80910C026D
:1017C00080FD41CF982F907F09F43DCF8583903FD6
:1017D00009F4AECF982F907F905F8F70892B85830F
:1017E000A7CFF80160807180C380D480E0900902A7
:1017F0005601A21AB30AEE2009F4F8CE60E087E0A1
:1018000092E00E942B0367E072E00E949A1B2091F5
:101810000C02207FA816B90608F0A2CE80910A0219
:1018200090910B02211161CEEF2C892B49F0809110
:10183000070290910802282F29232F3F09F033CF68
:10184000C114D10429F0872D86218F3F09F028CFBC
:1018500080E0B82FB170DB2E80FF3DCE8091C501B6
:101860002091C601821314CE698A7A8A89899A895D
:101870000E945909292F22952F70223008F41DCE7D
:10188000243008F023CE9F7009F41CCEF801958116
:10189000907F09F017CED12C1CCEA0E1B0E0E3E59B
:1018A000FCE00C94F33429873A874B875C876D877B
:1018B0007E878F87988BCE0109960E941D0A882308
:1018C000A9F08C859D85892B39F029853A85822F51
:1018D00083238F3F09F06FC08091C5019091C601AD
:1018E000891343C06096E2E00C940F3588E0FE0156
:1018F0003996DE01119601900D928A95E1F78C855B
:101900009D85892B49F389859A8589238F3F21F30A
:10191000A091C601B0E0CD01019687709927209172
:10192000C5012817190671F40E94DE071092C6013E
:101930001092C50188E0E7E0F2E0DF011D928A9590
:10194000E9F7CACF93E0AA0FBB1F9A95E1F7A95315
:10195000BE4F98E0FE01319601900D929A95E1F705
:101960008093C6010E948709B7CFB8E08B9FC00162
:10197000112489539E4F0E941D0A882309F4B2CF77
:10198000E091C50128E0E29FF0011124E953FE4FE8
:101990002081318142815381648175818681978163
:1019A0000E9422088091C50190E0019687709927D6
:1019B0008093C50191CF4B855C856D857E858F8534
:1019C00098890E94220888CF682F80910001909109
:1019D00001010E94DB2B0895682F809100019091F6
:1019E00001010E94E92B089580910001909101016D
:1019F0000E94F72B08958091340208950E94B82C1C
:101A00002091320230913302821B930B9C0181E0C2
:101A10002838334108F480E008958091310285959B
:101A200085958595089580913102877008950E946B
:101A3000B82C20912F0230913002821B930B8838F2
:101A4000934148F08091310282FB882780F991E030
:101A500089278170089580E0FCCF909131029770C2
:101A600081E009F480E008958091590208959091F1
:101A70005902892B809359020895809590915902BB
:101A800098239093590208951092590208958091D5
:101A90005802089590915802892B80935802089516
:101AA000809590915802982390935802089510922F
:101AB000580208958093570208951092570208958E
:101AC000809356020895109256020895809135022F
:101AD000089508950E94690D089590913402981711
:101AE00021F0809334020E946A0D089508950E94A7
:101AF000760D0895CF93C82F8091890482FF0FC07F
:101B0000809135028C1759F00E94B82C90933302C3
:101B100080933202C09335028C2F0E94770DCF91B3
:101B2000089580913502882349F010923502109271
:101B300033021092320280E00E94770D0895CF9315
:101B4000DF93E0910001F0910101809159028083BF
:101B5000E0910001F0910101808190915802892B60
:101B60008083809135028823B9F00E94FE0C811198
:101B70000E94910DE0910001F0910101808190910E
:101B80003502892B808380910001909101010E9490
:101B9000472B81110E94910DE0910001F09101010C
:101BA00080915602982F9095808189238083E091BF
:101BB0000001F0910101808190915702892B80836F
:101BC000C0910001D091010140E250E06FE072E06D
:101BD000CE010E943735892B59F080E2FE01AFE03B
:101BE000B2E001900D928A95E1F7CE010E94F32AAE
:101BF000DF91CF91089508950E94FB0D0895909173
:101C0000890492FF17C098E0899F90011124622BEC
:101C1000609331020E9467080E94B82C90933002B2
:101C200080932F02809131028595859585950E943C
:101C3000FC0D08950E9467080895109231021092D9
:101C4000300210922F0280E00E94FC0D08959091C6
:101C500031028095892380933102282F277091F4D7
:101C6000282F082E000C330B9217130659F0909171
:101C7000890492FF07C08595859585950E94730814
:101C80000E941D0E08959091890492FB222720F94D
:101C9000281769F080FB92F9909389048091880459
:101CA000909189040E94950E82E00E94270E08956B
:101CB0008091890482FB882780F991E089270E941E
:101CC000430E089581E00E94430E089580E00E9433
:101CD000430E08956FEF7FEF90E080E00E94903513
:101CE000089590E080E00E946C35883E9E4F19F484
:101CF0000E940A16089580E0089582E090E00E9414
:101D00006435089583E090E00E9464350895CF9390
:101D100084E090E00E946435C82F82E290E00E9447
:101D20006435982F8C2FCF910895CF93C92F682FAA
:101D300084E090E00E9472356C2F82E290E00E9475
:101D40007235CF910895AB01BC018FE090E00E9405
:101D500084350895AB01BC0183E190E00E94843595
:101D6000089560E070E0CB010E94AA0E089560E043
:101D700070E0CB010E94A30E0E94B10E089568EEA0
:101D80007EEF90E080E00E94903560E082E090E09D
:101D90000E94723560E083E090E00E9472351092FC
:101DA000C40160E084E090E00E94723564E082E269
:101DB00090E00E94723560E085E090E00E9472350C
:101DC00060E086E090E00E9472356FEF87E090E07F
:101DD0000E94723540E050E0BA0188E090E00E9435
:101DE000843560E08DE090E00E94723540E050E084
:101DF000BA0188E190E00E94843560E087E190E0DC
:101E00000E94723540E050E0BA018CE190E00E94FF
:101E1000843570E060E080E290E00E94903540E020
:101E200050E0BA0188E190E00E94843580E00E9491
:101E300023160E9452160E94B70E08950E94BF0EEC
:101E400008950E94C42C6093670270936802809387
:101E5000690290936A0260936302709364028093B4
:101E600065029093660208950E94C42C60936702F5
:101E7000709368028093690290936A0260935F0294
:101E800070936002809361029093620208950895B6
:101E900008950E94480F089508950E944C0F0895D8
:101EA00088EE91E10E94DC2A0E94AA180E94470F46
:101EB0000E94490F089581E008950E945B0F0895E4
:101EC000089508950E94600F0E94610F08950E9476
:101ED00004120E941C0408950E94AF2C0E946216F6
:101EE0000E94C0120E94670F0E9452200E944D0F54
:101EF00008950E943D270E94A42A0E941523089558
:101F0000AAE0B0E0E6E8FFE00C94EB340E94D612C1
:101F100010915C0280E00E94271281133BC0109157
:101F20005D0281E00E942712181334C010915E02F6
:101F300082E00E94271218132DC00E94B82C8C0139
:101F400080915A0290915B0208171907A1F08FEF58
:101F500089838A831B820E94B82C8160782F9D839D
:101F60008C8349815A816B818D810E944804109332
:101F70005B0200935A020E94790F0E94C3208111D4
:101F80000E94340F0E940E150E942F042A96EAE048
:101F90000C94073580916B0281FD0E942D120E94E6
:101FA0005D0FC82E8CE5A82E82E0B82E10E0812FA0
:101FB0000E942712082FF50181915F01081731F166
:101FC000D02ED826F12CEE24E3948D2D8E21B1F065
:101FD000CC20A1F0FE821F8391E0802F8E2109F496
:101FE00090E098870E94B82C8160782F9A87898723
:101FF0004E815F8168858A850E944804F394EE0CC7
:10200000F3E0FF12E2CFF501319700831F5F133039
:1020100071F60E94210FAFCFCF93DF930E9403117F
:10202000EC01811521E5920708F042C0811530E5E9
:10203000930708F09FC0883E910530F5803E9105DA
:1020400008F094C0883A910588F4853A910508F023
:1020500086C08130910509F489C0009709F486C0D3
:10206000049708F083C0D0E0C0E080C08F3B9105AA
:10207000D0F7C85AD0E0CC0FDD1FC85ADE4F099008
:10208000D881C02DD46472C0811540E2940750F409
:10209000C11581E0D80708F069C0C03FD10518F329
:1020A000D06564C081159044F0F2DF70D06A5EC0E4
:1020B000811535E5930718F5811544E5940708F077
:1020C00086C0C11583E5D80708F06DC0C11522E5AB
:1020D000D20708F463C0CE018370992721E030E075
:1020E00002C0220F331F8A95E2F7C695C69580E29B
:1020F000C89FE0011124C22BD32BDC6837C08115A7
:1021000039E59307A8F4811548E5940708F064C001
:10211000C11586E5D80708F0A6CF8C2F0E94A5111F
:10212000C82FD0E0DC2FCC27CC27DF71D0621EC0B7
:1021300081152AE5920708F454C090568115904203
:1021400008F091CF8D2F8F710E94A51190E0982FEC
:10215000882788279F719C012C2BE901E7CFC55A5E
:10216000D0E0CA57DE4FC881D0E0D064CE01DF9105
:10217000CF910895282F26952695237040E2249F1D
:10218000900111248370C1E0D0E002C0CC0FDD1FAC
:102190008A95E2F7C22BD32BDD68E8CFDC2FCC2762
:1021A000C16FD06AE3CFCE018370992721E030E080
:1021B00002C0220F331F8A95E2F7C695C69540E20A
:1021C000C49FE0011124C22BD32BDA68CFCFD82FC4
:1021D000CC27C46FD06ACACFD82FCC27C06FD06AA3
:1021E000C5CF8F700E94A51134E0D695C7953A955A
:1021F000E1F7CF709C2FEC01D069B8CF0E94471E49
:102200000E940C10089582389105B9F1B0F4813321
:10221000910509F47DC048F48932910509F46DC037
:102220008A32910509F47BC008958533910509F43C
:102230005FC08933910509F10895833E9105D9F175
:1022400038F4803E910529F1823E910579F1089597
:10225000863E9105D9F1873E910509F43EC0843E42
:10226000910541F52091890421FF24C080918804C3
:1022700084FD19C087EE90E00895209188042370B2
:1022800009F05AC02091890423FF14C089E290E02C
:1022900008952091880420FD38C03091890430FFD2
:1022A00009C024FF43C090E080E008952091880495
:1022B00022FDF7CF08952091880422FD3AC0309185
:1022C000890430FD39C024FFF5CFEDCF209188047B
:1022D00023FFF0CF24FDE7CFCDCF2091880423FD4D
:1022E0002EC03091890431FFEECF84EE90E0089546
:1022F0002091880425FFDECFC9CF2091880425FDD9
:1023000021C02091890423FFD5CF89E390E0D2CF6B
:102310002091880426FFCECF8AE290E00895209194
:10232000880426FFC7CF81E390E0089583EE90E014
:10233000089582EE90E0089580EE90E0089586EE94
:1023400090E0089585E390E008959091880492FFCD
:1023500006C0282F28712830F9F4877F846093FF06
:1023600006C0282F28712831F1F4877E84612091DE
:10237000890420FF06C0382F38713830D9F4877FA0
:10238000816021FF06C0282F28712831D1F4877E73
:10239000816194FD877E0895282F24712430F9F6F9
:1023A0008B7F8860DCCF282F2471243101F78B7E4E
:1023B0008861DDCF382F3171313019F78E7F886019
:1023C000E0CF282F2171213121F78E7E8861E1CF66
:1023D00080E008950E946A0E08950E94D6128FE34D
:1023E0009CE90197F1F700C000000E94D61280E03E
:1023F0000E94271280FF04C00E94EA110E941F2D34
:1024000008950E94ED1108950E94710E811102C07D
:102410000E941E0F0E947D0E80936B020E94870E09
:1024200090938904809388040E9401120E94820E76
:102430000E9438088091C3010E94500808950895B1
:102440000E941F12089508950E9423120895E82FF4
:10245000F0E0E357FB4F80810895089580EA8A9564
:10246000F1F7089500C008950E942E120895F8947F
:10247000E82FE295EF70F0E031A1282F2F7081E076
:1024800090E001C0880F2A95EAF7982F9095932342
:1024900091A392A1892B82A37894089584EF0E943E
:1024A000371285EF0E94371286EF0E94371281E9BA
:1024B0000E94371284E90E94371280E90E94371285
:1024C0000895B0E0A0E0E7E6F2E10C94ED34EC0111
:1024D000D62E062F10E0C80184579E4F7C01FC01C8
:1024E00080818F3F09F445C0F894E82FE295EF70A2
:1024F000F0E091A18F7021E030E001C0220F8A95B9
:10250000EAF7892F822B81A382A12095282322A379
:1025100078940E943212E9E8F1E04CE851E031E0B1
:10252000C12C21912F3F51F1A22FA295AF70B0E0A5
:1025300090968C9190E02F7002C0959587952A9582
:10254000E2F780FD1BC0832FC82A330F4E175F07A9
:1025500041F7F70180818F3F11F00E94371261E04F
:10256000C11001C060E08D2D0E943412C00FD11F38
:10257000C882CDB7DEB7E8E00C94093580E0E4CF3F
:102580000E944E1283E0EDE8F4E0DF01982F1D92E7
:102590009A95E9F7EAE8F4E0DF011D928A95E9F7F8
:1025A00083E00E9415130E9478030895A3E0B0E031
:1025B000ECEDF2E10C94F23419821A821B8260E095
:1025C000CE0101960E94611261E0CE0101960E9447
:1025D000611262E0CE0101960E94611243E050E078
:1025E000BE016F5F7F4F8AE894E00E94373521E09B
:1025F000009709F420E0892B49F089819A81AB8109
:1026000080938A0490938B04A0938C0443E06DE83C
:1026100074E08AE894E00E941613182F0E947B034E
:10262000812F2396E3E00C940E350895CF92DF922C
:10263000EF92FF920F931F93CF936C017B01042FB6
:10264000222349F081E080936E020E94B82C90937F
:102650006D0280936C02C0916E02C1110AC0C0E08D
:102660008C2FCF911F910F91FF90EF90DF90CF9023
:10267000089580916C0290916D020E94D02C059774
:1026800070F310E0A801B601C7010E943735892B0D
:1026900041F0A801B601C7010E94443510926E02B4
:1026A000DFCFC0E0FBCF0E941B2F0E946C0F0E9467
:1026B000282F08950E942D2F0E94800F0E94472FDF
:1026C00008950E94512C0E94012F0E94500F0E94D9
:1026D00053130E945A130E94620FFBCF8091750220
:1026E00080FF0DC06091070170E0660F771F6038B2
:1026F000710570F56115710569F1862F089581FFE7
:1027000007C06091070184E0689FB0011124EFCFFA
:102710006091070182FD0AC0809174028823A9F0AC
:102720002091060160910701821710F088E0ECCF3C
:10273000869FC001112433E0880F991F3A95E1F775
:10274000622F70E00E94C234D2CF68E070E0D5CF33
:102750008FE7089581E008958091750280FF0CC095
:102760006091030170E075956795759567956115A2
:10277000710549F1862F089581FF06C0609103011C
:1027800070E075956795F3CF6091030182FD0BC0F2
:10279000909173029923A1F060910201809103014D
:1027A000961738F0682F70E06038710500F38FE7F6
:1027B0000895899FC001112470E00E94C234F4CFB3
:1027C00061E070E0D7CF81E00895803F31F40E944E
:1027D0006E138195809379020895813F19F40E94C8
:1027E0006E13F8CF823F31F40E946E13819580936F
:1027F00078020895833F19F40E946E13F8CF893F41
:1028000029F40E94AC1380937A0208958A3F21F440
:102810000E94AC138195F7CF8B3F31F40E94AC132B
:10282000819580937B0208958C3F19F40E94AC132C
:10283000F8CF843F31F480917702816080937702F2
:102840000895853F21F4809177028260F7CF863F1B
:1028500021F4809177028460F1CF873F21F4809149
:1028600077028860EBCF883F21F480917702806106
:10287000E5CF8D3F31F480917502816080937502C0
:1028800008958E3F21F4809175028260F7CF8F3FCB
:10289000B9F7809175028460F1CF90917802803F02
:1028A00059F48091790287FF0DC01092790291113D
:1028B0000BC01092740208C0813F81F480917902AC
:1028C00018169CF3992381F080917A0290917B02F3
:1028D000892B09F064C0109273020895823F49F475
:1028E00097FFF0CF10927802809179028111ECCF9E
:1028F000E0CF833F19F41916ACF3E4CF20917A02AC
:10290000893F29F41216F4F610927A02DBCF8A3F3F
:1029100019F427FFD7CFF8CF20917B028B3F29F402
:1029200027FFD0CF10927B02CDCF8C3F19F4121627
:10293000CCF3C8CF843F31F4809177028E7F8093AF
:102940007702C0CF853F21F4809177028D7FF7CF4A
:10295000863F21F4809177028B7FF1CF873F21F46E
:1029600080917702877FEBCF883F21F480917702B7
:102970008F7EE5CF8D3F31F4809175028E7F8093FD
:102980007502A0CF8E3F21F4809175028D7FF7CF25
:102990008F3F09F097CF809175028B7FF0CF08951C
:1029A0000E94B82C9C019091780280917902982B1A
:1029B00021F0309372022093710290917A028091FB
:1029C0007B02982B21F03093700220936F0286E7F0
:1029D00092E00E940D2B089586E0E6E7F2E0DF0129
:1029E0001D928A95E9F71092740210927302109268
:1029F00075020895FC01828181110EC083818111CD
:102A00000BC08481811108C091E08581811101C0D2
:102A100090E0892F8170089581E0FCCFA6E0B0E0BE
:102A2000E4E1F5E10C94F23486E0E6E7F2E0DE0161
:102A3000119601900D928A95E1F71092780210920A
:102A4000790210927A0210927B028B819C81892BF1
:102A500089F080917102909172020E94D02CAC0199
:102A6000909174029923C9F1809108018417150689
:102A700008F440C08D819E81892B91F080916F0276
:102A8000909170020E94D02CAC0190917302992316
:102A900009F471C0809104018417150608F479C007
:102AA000BE016F5F7F4F86E792E00E94092C811183
:102AB00005C086E792E00E94FA1481110E94D014AA
:102AC00086E0FE013196A6E7B2E001900D928A956C
:102AD000E1F72696E3E00C940E35209109018AE097
:102AE000289F900111242417350720F69F5F9093AB
:102AF000740202C09F3FD1F71B81112359F00E943D
:102B00006E139FEF11160CF491E0899F802D112414
:102B1000809378021C81112359F00E946E139FEF5D
:102B200011160CF491E0899F802D11248093790275
:102B300030917802332309F49DCF2091790222232A
:102B400009F498CF45EB3403C0011124992359F0BF
:102B50009093780245EB240390011124332339F03C
:102B60003093790287CF81E080937802F3CF81E0C0
:102B7000809379027FCF209105018AE0289F900100
:102B800011242417350708F08BCF9F5F90937302B1
:102B900002C09F3FD1F71D81112359F00E94AC1351
:102BA0009FEF11160CF491E0899F802D11248093E2
:102BB0007A021E81112359F00E94AC139FEF111667
:102BC0000CF491E0899F802D112480937B02309139
:102BD0007A02332309F464CF20917B02222309F483
:102BE0005FCF45EB3403C0011124992359F0909332
:102BF0007A0245EB240390011124332339F03093FA
:102C00007B024ECF81E080937A02F3CF81E0809304
:102C10007B0246CF83E290E00E946435863F89F4D0
:102C200084E290E00E9464358F3B59F485E290E0A5
:102C30000E94643591E0823509F090E0892F81701F
:102C4000089580E0FCCFCF93C82F6FEF811166EF1E
:102C500083E290E00E9472356FEFC1116FEB84E266
:102C600090E00E9472356FEFC11162E585E290E05D
:102C70000E947235CF910895089586E290E00E94F7
:102C80006435682F70E090E080E008950895CF9358
:102C9000C62F0E9446166C2F86E290E00E94723585
:102CA000CF91089580E00E94231660E070E0CB0190
:102CB0000E9447160E943B1D0E94C01E81E00E9498
:102CC000231608950E943C160E943D160E94461647
:102CD0000E940A16811102C00E9452160895CF93D5
:102CE000FB01C281CC2309F19C0122513F452031D7
:102CF000310520F582510E94D01EC0E08C2FCF916B
:102D0000089581E00E94670843E062E081E00E944C
:102D10006E03F3CF81E00E94730843E062E081E03C
:102D20000E946E03EBCF82E0F6CF8031FFE59F0774
:102D300089F381319F45B9F3C1E0E0CF8031EFE500
:102D40009E07F9F281319F45C9F682E0DBCF2FEF74
:102D5000FC01208308951F93CF93DF93EC01162F7E
:102D600088812091C3033091C403232B79F08E3FD7
:102D700009F057C08981833020F08550833008F0F6
:102D800050C0612FCE010E94B1184BC08C3009F4A5
:102D90009DC0D0F4843009F480C060F4823009F41E
:102DA00048C008F06DC08130C9F1612FCE010E948A
:102DB000A71637C0863009F486C008F479C08A3077
:102DC000A0F78FEF88832DC0803109F49CC0D8F420
:102DD0008E3009F487C008F47DC080910C01909179
:102DE0000D01892BF1F06B8170E06D317105C8F434
:102DF00089819A81AE014C5F5F4F98278927982778
:102E00000E949B1E0EC0823109F483C008F47EC06C
:102E1000833109F48FC08E3F41F6B3CF198289E028
:102E20008A83612FCE010E94D42DDF91CF911F9113
:102E300008958981823071F0833079F0813009F012
:102E4000B4CF0E94C42C0E94DC346A837B838C83C1
:102E50009D83E7CF0E943D16F6CF80910C019091A3
:102E60000D01892BF1F280E00E9427128A8381E014
:102E70000E9427128B8382E00E9427128C83D1CF7D
:102E80008981823009F091CF6A817B818C819D811B
:102E90000E94DC340E944716C4CF4B816A8189812D
:102EA0000E941B1C9827892798279D838C83B9CF64
:102EB0002C813D813227232732274B816A818981EA
:102EC0000E943D1CAECF0E943B1DABCF0E94711EE5
:102ED0008983A7CF0E94731E9827892798279A83F2
:102EE00089839FCF6B8170E06D31710508F099CFB8
:102EF00089819A81AE014C5F5F4F98278927982777
:102F00000E94761E8ECF0E94C01E8BCF0E94091C8D
:102F1000DFCF6B8170E06D31710508F082CF898160
:102F20009A81AE014C5F5F4F9827892798270E94AE
:102F3000F71D77CF6B8170E06D31710508F071CFAF
:102F400089819A81AE014C5F5F4F98278927982726
:102F50000E941A1E66CF81152CE5920741F420913C
:102F60000C0130910D01232B11F490E080E00895C5
:102F7000EFE3F3E090E080E063E77BE14FEF5AE1BD
:102F800026EA3AE177836683518740873387228731
:102F90009587848701963E968830910599F7089524
:102FA000CF92DF92EF92FF921F93CF93DF93CDB733
:102FB000DEB72A970FB6F894DEBF0FBECDBFE0E9AB
:102FC000F4E080E5DF011D928A95E9F7E7E0F3E0A0
:102FD00088E3DF011D928A95E9F780E9C82E84E035
:102FE000D82E7F0110E0F701D182C082BE016F5F51
:102FF0007F4F812F0E94EB1C892B79F488E0FE0122
:103000003196D60101900D928A95E1F789859A85CE
:10301000D70113969C938E931297BAE0CB0ED11CD6
:10302000E7E0EE0EF11C1F5F1830E9F62A960FB6A6
:10303000F894DEBF0FBECDBFDF91CF911F91FF90FF
:10304000EF90DF90CF900895AAE0B0E0EAE2F8E1D7
:103050000C94EA340EE812E08CE7C82E82E0D82EF9
:10306000F12C97E0E92E9924939426E0A22E23E0F8
:10307000B22ED6010D931D936D01BE016F5F7F4F80
:103080008F2D0E94131D892B09F056C0F801389628
:10309000DF018E2D1D928A95E9F789819A81D801E9
:1030A00011969C938E938F8112968C9312978D819B
:1030B00013968C931397888514968C93149789850F
:1030C00015968C9315978B819C8117969C938E9364
:1030D000169718961C9218978A8587FF37C01E96F8
:1030E0001C921E921D9780FF03C0D80118969C92D7
:1030F00081FF04C0F80190859260908782FF07C02D
:10310000D80118969C911897946018969C9383FF09
:1031100004C0F80190859860908784FF07C0D801AB
:1031200018969C911897906118969C9385FF04C0FF
:10313000F801808580628087015F1F4FF394F8E07B
:10314000FF1297CF2A96EBE00C940635F801B6866D
:10315000A586C9CF0E94B8170E94D0170E942418D4
:103160000895CF92DF92FF920F931F93CF93DF9337
:10317000CDB7DEB72A970FB6F894DEBF0FBECDBF2E
:103180008C01603269F5DC011196EC911197EE30FB
:1031900038F5F0E0E454FA4C0C94D63488E0EFE1D2
:1031A000F1E0DE01119601900D928A95E1F780E23F
:1031B000F80111928A95E9F785E0D8018C93119670
:1031C0001C92119712961C92129713961C921397A9
:1031D00088E0FE013196149601900D928A95E1F7F0
:1031E0002A960FB6F894DEBF0FBECDBFDF91CF9108
:1031F0001F910F91FF90DF90CF90089588E4F80120
:10320000808381E0818312821382EACF13968C91AE
:103210001397682F70E0762F662712968C91860F91
:10322000972F911D092E000CAA0BBB0B55E0880FA0
:10323000991FAA1FBB1F5A95D1F7AC01BD01405E73
:103240005F4F6F4F7F4F481759076A077B0740F260
:103250008834E1E09E07A105B10510F64934F1E09C
:103260005F076105710520F048E451E060E070E01F
:10327000481B590BBC016C5E7E4FC8010E942E3565
:10328000AFCF1296FC9012971396DC9040E06D2D14
:103290008F2D0E94591C982789279827F801918320
:1032A000808341E06D2D8F2D0E94591C982789271E
:1032B0009827D80113969C938E93129791CFFC0177
:1032C000858196819827892798270E94AB1741E02E
:1032D000D80114962C91211101C040E09C01F80105
:1032E000638182810E94921C7BCF40E250E06FEFAD
:1032F00070E00E944D3580910C01D8018C93809133
:10330000C30311968C936CCF81E090E09093C4033B
:103310008093C30382E390E09093C2038093C10340
:103320000E94B82C5DCF80910C01F80180838091C0
:10333000C30381838091C103828352CF40E250E076
:103340006FEF70E00E944D354BCF1296EC911297C3
:10335000E73008F045CFF0E0E653FA4C0C94D63451
:1033600080E2F80111928A95E9F788E08C93119632
:103370008C93119712968C9333CFFC0183813AE0A2
:10338000F32E9E012F5F3F4F6901D901EF2D1D9252
:10339000EA95E9F7B9010E94C31CD8018D93F601A3
:1033A00001900D92FA94E1F71BCF1396FC908AE0FE
:1033B000F8013496DE01119601900D928A95E1F79D
:1033C00089819A810E94AB179A8389838B819C8122
:1033D0000E94AB179C838B838D819E810E94AB17CB
:1033E0009E838D838F8198850E94AB1798878F83EA
:1033F000BE016F5F7F4F8F2D0E94D71CF801808325
:103400000E94B817EDCE13968C912AE0F22EFE01A1
:1034100031966F01DF01EF2D1D92EA95E9F7B601B4
:103420000E94EB1CBACF1396FC908AE0F801349608
:10343000DE01119601900D928A95E1F789859A85B2
:103440000E94AB179A878987BE016F5F7F4F8F2DD0
:103450000E94FF1CF80180830E94D017C1CE1396F2
:103460008C919AE0F92EFE0131966F01DF01EF2D6C
:103470001D92EA95E9F7B6010E94131D8ECF1396AF
:10348000FC908AE0F8013496DE01119601900D92CD
:103490008A95E1F78B819C810E94AB179C838B837B
:1034A000BE016F5F7F4F8F2D0E94271DF801808323
:1034B0000E94241895CEA5E0B0E0E1E6FAE10C9474
:1034C000F3349093E1048093E004811520E29207A5
:1034D00030F40E94C8022596E2E00C940F3580EF8C
:1034E00089838A8381E08B830E94B82C8160782F46
:1034F0009D838C8349815A816B818D810E94480410
:10350000EACFA5E0B0E0E7E8FAE10C94F334909359
:10351000E1048093E004811520E2920730F40E94D8
:10352000DE022596E2E00C940F3580EF89838A83D2
:103530001B820E94B82C8160782F9D838C834981E7
:103540005A816B818D810E944804EBCF0F931F93AA
:10355000CF93DF938C01EB016FEA73E08C2F0E9415
:10356000C31C892B71F4DD27C754DC4F8881F80117
:10357000128218828330F1F048F4813059F08230A1
:1035800081F0DF91CF911F910F9108958430B9F0B0
:103590008530B9F78091AF039091B003009789F31C
:1035A00006C08091B1039091B203009799F30E94F5
:1035B000811AE7CF8091B3039091B403F6CF809145
:1035C000B5039091B603009791F72091AF03309126
:1035D000B0038091B1039091B20321153105F1F24E
:1035E000009729F7C901E3CFCF93DF93EC010E9445
:1035F0005B1ACE010E94811ADF91CF9108950F933B
:103600001F93CF93DF938C01EB016FEA73E08C2F54
:103610000E94C31C892B09F05CC0FE01FF27D80162
:1036200012968C911297E754FC4F8130B9F415969D
:103630009C9192FF02C080830AC090FFFCCF82E081
:1036400080838091B1039091B2030097B9F4809187
:10365000AF039091B0030097E1F110C08230B9F54B
:1036600015968C9182FD28C080FD0BC083E080837D
:103670008091B3039091B403009701F10E945B1A0B
:1036800028C084E080838091B5039091B6030097B1
:10369000A9F78091AF039091B0030097F9F00E94D1
:1036A000F41A8091B1039091B203009739F7809199
:1036B000AF039091B003E2CF85E080838091AF03A8
:1036C0009091B003009729F00E94F41AF0CF86E0A1
:1036D0008083DF91CF911F910F9108958091B10365
:1036E0009091B203B8CF0F931F93CF93DF938C01C8
:1036F000862F6FEA73E00E94C31C892BB1F4C0913E
:10370000AF03D091B003209781F0F801828183301C
:1037100051F4CE010E94F41ACE010E94F41ACE0197
:103720000E94F41A02C08430D0F7DF91CF911F912C
:103730000F910895AAE0B0E0E0EAFBE10C94F334C5
:103740009C0137552F3F310509F068F4BE016F5FCA
:103750007F4F0E94C31C892B31F489859A852A9654
:10376000E2E00C940F3588EC90E0F9CFCF93DF9333
:10377000FB012281211130C0EC01D755CF3FD1058B
:1037800009F050F56FEA73E08C2F0E94C31C892B5F
:1037900019F58EE08C9FF0018D9FF00D1124E15CF6
:1037A000FC4F82818130E1F48091AF039091B003AE
:1037B000892B91F08091B1039091B203892B61F034
:1037C0008091B3039091B4032091B5033091B60377
:1037D000822B932B892B61F081E0DF91CF910895AB
:1037E0008230D1F78091B3039091B403892BA1F378
:1037F0002EE02C9FC0012D9F900D1124FC01EC5B4D
:10380000FC4F20812E7F2083815C9C4F0E94032AE5
:10381000E3CF84E0089550E0440F551F96E0699F80
:10382000400D511D112492E1899F400D511D11241D
:10383000CA01879608950F931F93CF93DF93843027
:10384000C8F46330B8F44330A8F40E940B1C8C0118
:103850000E946435C82FD0E0DC2FCC27C801019628
:103860000E9464359E01282BC901DF91CF911F91E1
:103870000F91089590E080E0F8CF0F931F93CF93BE
:10388000DF93122F032F843078F4633068F44330D1
:1038900058F40E940B1CEC01602F0E947235612FBE
:1038A000CE0101960E947235DF91CF911F910F9149
:1038B0000895FF920F931F93CF93DF93F42E8430DC
:1038C00070F5623060F528E0829F8001112434E0B9
:1038D000639FB0011124060F171F01591F4F82E08B
:1038E00090E0442311F090E080E0800F911F0E944F
:1038F0006435C82FD0E0DC2FCC2783E090E0FF2098
:1039000011F081E090E0800F911F0E9464359E01CC
:10391000282BC901CDB7DEB7E5E00C940C3590E05B
:1039200080E0F8CF0F931F93CF93DF93142F022FD4
:10393000843020F5623010F598E0899FE001112471
:1039400084E0689FB0011124C60FD71FC159DF4F13
:1039500082E090E0442311F090E080E0632F8C0F30
:103960009D1F0E94723583E090E0112311F081E0E9
:1039700090E0602F8C0F9D1F0E947235DF91CF91D8
:103980001F910F9108959B01883070F49AE0899FF0
:10399000B001112461577F4F4AE050E0C9010E94F5
:1039A000543590E080E008958FEF9FEF08959B01DC
:1039B000883070F49AE0899FB001112461577F4FDD
:1039C0004AE050E0C9010E94963590E080E00895F9
:1039D0008FEF9FEF08959B01883070F49AE0899FE4
:1039E000B001112461527F4F4AE050E0C9010E94AA
:1039F000543590E080E008958FEF9FEF08959B018C
:103A0000883070F49AE0899FB001112461527F4F91
:103A10004AE050E0C9010E94963590E080E00895A8
:103A20008FEF9FEF08959B01883070F49AE0899F93
:103A3000B0011124615D7E4F4AE050E0C9010E944F
:103A4000543590E080E008958FEF9FEF08959B013B
:103A5000883070F49AE0899FB0011124615D7E4F37
:103A60004AE050E0C9010E94963590E080E0089558
:103A70008FEF9FEF0895AEE1B0E0E1E4FDE10C943B
:103A8000E43460900C0170900D0181E090E090931F
:103A90000D0180930C018CEAA82E80E0B82E9CECDE
:103AA000C92E90E0D92E10E000E07601412C502E76
:103AB0001DC00E94890221E030E08017110621F02C
:103AC0001CF0F40125913491432D642D852D0E9425
:103AD0003D1C82E0880E911C339493E03912E9CFAB
:103AE0004394E6E0EE0EF11C491619F04701312C23
:103AF000E0CF7501912C0E948B028017110609F00E
:103B00000CF46BC0F7012591349141E0692D852DAE
:103B10000E94921CF70132962591349140E0692D64
:103B2000852D0E94921CF4E0EF0EF11C81E09812AA
:103B300051C00F5F1F4F98E0A90EB11CE2E1CE0EFD
:103B4000D11C0430110509F0B0CF1E8A1D8A188ED1
:103B50001F8A1A8E198E1C8E1B8E88EC90E09E8F09
:103B60008D8F10E0BE016B5E7F4F812F0E94D71CAE
:103B70001F5F1830B9F77E01FBE0EF0EF11C8AE001
:103B8000F70111928A95E9F710E0B701812F0E94A1
:103B9000FF1C1F5F1830C9F7CE0101967C018AE037
:103BA000F70111928A95E9F78FEF9FEF9E838D833E
:103BB00087E08A8710E0B701812F0E94271D1F5FD1
:103BC0001830C9F770920D0160920C016E96E1E118
:103BD0000C940035992493948ECF21E030E041E09D
:103BE000692D852D0E94921C21E030E097CFEF9245
:103BF000FF920F931F93CF93DF93EC018A017C0117
:103C0000E60EF71ECE018796CE15DF0529F4CDB757
:103C1000DEB7E6E00C940B35C834D10540F40E94C1
:103C20006435F80180830F5F1F4F2196EBCFF801B9
:103C30001082F9CFB0E0A0E0E0E2FEE10C94ED34B8
:103C40008C016A018834910580F488E490E0801B3F
:103C5000910B8617970748F07801E60EF71EE801EA
:103C6000CE018796CE15DF0529F4CDB7DEB7E8E0A3
:103C70000C940935C834D10540F4FE01E01BF10B6A
:103C8000EC0DFD1D60810E9472352196E9CF2091D7
:103C9000C3033091C403232BC9F4703F39F4603F50
:103CA000A9F48091E0049091E1040895843070F4C7
:103CB000733038F4633050F4462F672F0E941B1C7A
:103CC00008957D3F31F441E0623040F090E080E0C3
:103CD00008957C3FD9F76230C8F740E00E94591C34
:103CE000089580E1089581E892E00895EF92FF92AF
:103CF0000F931F93CF93DF93EC018A017C01E60EB3
:103D0000F71ECE0181589E4FCE15DF0529F4CDB7A1
:103D1000DEB7E6E00C940B35C13822E0D20740F460
:103D20000E946435F80180830F5F1F4F2196E9CF11
:103D3000F8011082F9CFB0E0A0E0E1EAFEE10C94D6
:103D4000ED347C016A018C01060F171FEC01CE01D6
:103D500081589E4FC017D10729F4CDB7DEB7E8E0F0
:103D60000C940935C13822E0D20740F4FE01EE1967
:103D7000FF09EC0DFD1D60810E9472352196E7CF91
:103D8000CF93DF93CFE7D1E060E0CE010E947235A0
:103D90002196C11584E0D807B9F7DF91CF91089536
:103DA000A4E0B0E0E6EDFEE10C94EC34F82E2FE058
:103DB000281708F4A5C08FEF93E00E9464358111A5
:103DC0009FC00FE711E0F11036C019821A821B82E2
:103DD0001C82BB24BA9478015FEFE51AF50AC8018A
:103DE0000E94643589831A82882309F489C081304E
:103DF00009F07FC0680182E0C80ED11CC7010E9493
:103E00006435E82E8A83882309F47AC0C6010E94AB
:103E10006435F82E8FEF8E0D8330D8F46801E3E01F
:103E2000CE0ED11CFB82FF2021F0CE0101960E9414
:103E300047208601D0CF011544E0140709F460C083
:103E4000C8010E946435811101C0FA940F5F1F4FB1
:103E5000BACF8BEF8E0D833030F5C8010396FB820D
:103E60006C01FF2031F36801F4E0CF0ED11C0E94F9
:103E700064358C838823E9F28B819C8181302FEF1C
:103E8000920710F0982F882746E0E41631F057E0AB
:103E9000E51631F00E94F41ACCCF0E945B1AC9CF0C
:103EA0000E94811AC6CF84E0E812C3CF6801E4E023
:103EB000CE0ED11CC80103960E946435FF2001F18B
:103EC0008823F1F08150990BB89E9001B99E300D76
:103ED00011244F2D4150550BCA01820F931F01979A
:103EE00008F4A7CFEFE9FFE03197F1F700C0000039
:103EF000F6CF60E0CE0101960E94E11F670199CFE5
:103F00002496E9E00C940835B0E0A0E0EAE8FFE18F
:103F10000C94EE34E82FF0E0E45AFD4FD490282FB3
:103F200026952695269530E0F901E450FD4F049141
:103F3000877010E0082E02C0159507950A94E2F7E5
:103F400001701127F901E451FD4FE490F12C082E86
:103F500002C0F594E7940A94E2F791E0E922FF2485
:103F6000F901E452FD4FC491D0E002C0D595C79548
:103F70008A95E2F7C170DD270115110519F081EE70
:103F80000E949704E114F10419F086EE0E94970450
:103F90008D2D0E943205E114F10419F086EE0E9485
:103FA000E8040115110519F081EE0E94E804CD2BFB
:103FB00019F08CE20E943205CDB7DEB7E7E00C9431
:103FC0000A35EF92FF920F931F93CF93DF93EC018B
:103FD000162F0AE08881882309F454C0813009F043
:103FE0004EC08981813099F47E0122E0E20EF11CFD
:103FF0008A810E943205E7012196812F815050F37A
:10400000EFE9FFE03197F1F700C00000F7CF823011
:1040100041F47E0182E0E80EF11C8A810E9497043F
:10402000EACF833041F47E01E2E0EE0EF11C8A819A
:104030000E94E804E0CF843011F02196DDCF2A8180
:10404000229690E080E0AE014F5F5F4F2053330B2C
:104050002A30310548F0019778F2EFE9FFE0319717
:10406000F1F700C00000F7CF089FB001099F700D65
:104070001124C901860F971F2981EA01E4CF0E940C
:10408000841FBACFCDB7DEB7E6E00C940B3560E005
:104090000E94E11F08958FE891E00197F1F700C0B9
:1040A00000000895FF920F931F93CF93DF9382E058
:1040B0008093C70301EA11E0CFE9D1E0AE01D80156
:1040C00021E030E08D91E82FE295EF70F0E0F1A073
:1040D0008F70B90101C0660F8A95EAF7962F909507
:1040E0009F2191A382A1862B82A3FA018191AF0126
:1040F000E82FE295EF70F0E0F1A08F70B90101C0F8
:10410000660F8A95EAF7962F90959F2191A382A139
:10411000862B82A3F1E0A33ABF07A1F60E944B20B1
:104120006091C7034AEC53E0FA018E2F841B861777
:1041300028F0CDB7DEB7E5E00C940C35D8012D9111
:104140008D01A22FA295AF70B0E090968C9190E077
:104150002F7002C0959587952A95E2F78170999105
:10416000A92FA295AF70B0E090962C9130E09F708F
:1041700002C0359527959A95E2F790E020FD92E0F0
:10418000892B8193D2CFA4E1B0E0E9ECF0E20C946A
:10419000E83410E000E084E0C82ED12C9DEF992E89
:1041A000882483942CEF722E8091C703181728F06F
:1041B000802F6496EDE00C940435E12EF12CF7018C
:1041C000EF55FE4F8081E82FE295EF70F0E0E0A11F
:1041D000F0E08F7002C0F595E7958A95E2F7E170FF
:1041E000D701A156BE4F2C91A22FA295AF70B0E07F
:1041F00090968C9190E02F7002C0959587952A95A6
:10420000E2F780FD91C080E08E2BD701A653BC4F12
:10421000EC919E2F9370981709F484C0EE0FEE0F67
:10422000E82BEC93EF70F0E0E157FE4FC7018853A5
:104230009C4F5C018081F5019081890F808320E093
:1042400084308CF1F701EB53FC4F80818F5F8083CA
:104250000E94B82C1B877C868D868160782F9F8773
:104260008E87412F5CEF61E08F850E9448048FE3C9
:104270009FE10197F1F700C000000E94B82C188B55
:10428000798A1A8A8160782F9C8B8B8B412F5CEF07
:1042900060E08C890E944804EFE3FFE13197F1F779
:1042A00000C0000021E0F50180818D3F8CF5F70111
:1042B000EB53FC4F8081815080830E94B82C19837E
:1042C0009A828B828160782F9D838C83412F5DEF52
:1042D00061E08D810E9448048FE39FE10197F1F72F
:1042E00000C000000E94B82C1E839F821886816047
:1042F000782F9A878987412F5DEF60E08A850E9439
:104300004804EFE3FFE13197F1F700C0000021E03E
:10431000F5018081082E000C990BB6010E94C23471
:104320008083022B1F5F40CF82E06ECF08950F93F2
:104330001F93CF93DF9380913704E091CC031CE06F
:1043400081111AC0DF91CF911F910F91089501E063
:104350000E0F0093CC03CE2FD0E0E19FF00111248B
:10436000E952FC4F83819481892B29F080819181CE
:1043700089238F3FF9F4E02F80913704E81738F351
:10438000109237041092CC03DDCF18968D919C913A
:104390008F3F9807E1F061E00E9496211C9FF00199
:1043A0001D9FF00D1124E952FC4F148213820E94CC
:1043B000570DE1CF1C9FD0011D9FB00D1124A952B4
:1043C000BC4F16968D919C911797892BF1F2208105
:1043D00031814281538164817581868197810E94F8
:1043E0004D0CDCCF109239041092380420910F014B
:1043F00030911001E7E0F3E090E080E02817390702
:1044000009F408954581411102C014821682019673
:104410003796F4CFDC016091D5038091D603962FB7
:10442000891301C00895292F30E0F901EE0FFF1F15
:10443000E353FC4F408151814A175B07A1F487E0A9
:104440008A9FA0018B9F500D1124495F5C4F81E032
:10445000FA0184839613E6CF2F5F3F4F23703327F3
:104460002093D50308952F5F3F4F922F9370D8CF9D
:104470006F927F929F92AF92BF92CF92DF92EF9214
:10448000FF920F931F93CF93DF93DB0114962C9130
:104490001497211156C0A0903704E7EDF3E030E007
:1044A00020E0B12C66246394712C2A1508F047C0D3
:1044B000C284D384ED90FC9011976FEF7FEF912C25
:1044C000492D50E08A01000F111F0E0D1F1DE8013C
:1044D000088119810115110531F0C016D10609F4C2
:1044E000BA019394EDCF6F3F7607D9F1E30102C093
:1044F000CC0FDD1F6A95E2F7BC2AB30102C0660F3C
:10450000771F9A94E2F7AB0141505109B416150692
:1045100031F512964D915C9113976CE0629FF0011A
:10452000639FF00D1124E952FC4F578346832EEF11
:10453000208321839187808721E015962C930E9408
:104540000A22DF91CF911F910F91FF90EF90DF90A2
:10455000CF90BF90AF909F907F906F9008951482FE
:1045600013822F5F3F4F3C96A0CF1F93CF93DF93D3
:10457000C091D50317E08091D6038C1308C00E9428
:1045800097210E94F221DF91CF911F910895D0E0F1
:10459000FE01EE0FFF1FE353FC4F80819181189FB6
:1045A000B001199F700D1124695F7C4F0E94382261
:1045B0002196C370E0CF0F931F93CF93DF93DC015D
:1045C0002D913C91119740E090E080E0E82FF0E0E1
:1045D000EE0FFF1FE20FF31FC081D1812097B9F0CA
:1045E000FB010081118190E005C0CE17DF0709F4BF
:1045F00041E09F5FE92FF0E0EE0FFF1FE00FF11F9A
:104600000190F081E02D309781F78F5FDFCF442359
:1046100049F0981708F4DB01CD01DF91CF911F918C
:104620000F910895B0E0A0E0F7CF80910E018823AC
:1046300041F180913A0490913B04009711F10E945E
:10464000D02C209138043091390428173907C8F448
:104650009091D5038091D603981759F00E94B52206
:10466000109239041092380410923B0410923A04CC
:1046700008950E94972110923B0410923A040E94E0
:10468000F221089510923B0410923A0410920E0108
:104690008091D6038093D5030E94F2210E94972136
:1046A000089580910E01882319F00E9442230895F5
:1046B00081E080930E010895AAE0B0E0E2E6F3E223
:1046C0000C94E3346C013B01FB011281873FFCE554
:1046D0009F0751F4112379F081E080930E01812F1F
:1046E0002A96E2E10C94FF34883F2CE5920709F00A
:1046F0004DC0111148C007E013E0F12CE12C1986E0
:1047000088248394912C80910F0190911001E816D8
:10471000F90608F445C0F3018281882309F463C1D6
:10472000F985FF2309F45FC10E94B82C90933B04E4
:1047300080933A0480913704883008F591E0980F0F
:104740009093370498E0F301DE01119601900D92E9
:104750009A95E1F72CE0829FC001112489529C4F69
:1047600028E0FE013196DC0101900D922A95E1F7D7
:104770002FEF3FEFFC0131872087D386C28611E0FF
:10478000F9851F27ACCF0E944223A9CF893F9C45C2
:1047900009F0B1CF112309F4AECF0E9451239FCF6E
:1047A000F80140815181AA24AA94BA2C20E0822FDA
:1047B00090E0FC01EE0FFF1FE40FF51F6081718197
:1047C0006115710531F0C616D70609F45C012F5F3B
:1047D000EECF312CFFEFAF16BF0609F445C0F8014C
:1047E000448130900E01832D411180E0F82FF1704B
:1047F0003F2EF80155808681F3019281992309F4B7
:1048000090C0332009F48DC0511015C0A4010A2CAA
:1048100001C0440F0A94EAF7842BF8018683809143
:10482000380490913904C29730F462E370E07093D9
:10483000390460933804C40102C0880F991F2A9577
:10484000E2F70197F80126812817190669F480918B
:104850003A0490913B04009781F00E94D02CC397BA
:1048600060F021E0F8012483F985F329F9872FEF1F
:10487000E21AF20A095F1F4F46CF2090D50330910C
:10488000D6033A8790E080E06A85261215C080172B
:10489000910751F3A22CB12CF501EE0FFF1FE3534A
:1048A000FC4FF182E0827FEFA71AB70A83E0A822CB
:1048B000BB24A092D603D8CFA22CB12CF501EE0FC9
:1048C000FF1FE353FC4F2081318147E0429FC0012D
:1048D000439F900D1124BC01695F7C4F2B01B801EF
:1048E000C2010E94DB220097A9F021E0FC01248391
:1048F0008017910709F4B8CF2091D50322120AC07E
:104900004816590639F495012F5F3F4F237033271E
:104910002093D5033FEFA31AB30A4A2D4370242EE8
:10492000B3CF90E0511020C0F40102C0EE0FFF1F82
:104930002A95E2F79F01215031092817390731F4F0
:10494000442309F44EC0C7010E940A22C4010A2C64
:1049500001C0880F0A94EAF7982F9095F801868194
:1049600089238683352C80CF9C010A2C02C0359583
:1049700027950A94E2F7A90141705527BC016150BF
:10498000710986239723892B41F5452B31F1F801D5
:1049900082819381892BE1F01B821C821D821E8201
:1049A000FEEFF983FA830E94B82C8160582F9D8313
:1049B0008C83F801828193818F83988729813A8142
:1049C0004B816D817E810E944D0CF8011582BECF16
:1049D00060E0C7010E949621F8CFF22FF1705F2EA0
:1049E000B5CF532CB3CF9091D5038091D6039817B0
:1049F00019F00E94B522C3CE0E94972110923B0469
:104A000010923A040E94F221BACEEBEFE80FEF3396
:104A100008F068C0F0E0EF52FA4C0C94D6340E94D3
:104A20001E0F81E0089580916B02807F80936B025E
:104A300081E080933F04089580910C0190910D01D5
:104A4000892B79F30E948D03ECCF90916B02892F13
:104A50008E7F90FF816080936B0280FDE2CF817F2B
:104A600080936B02DECF90916B02892F8D7F91FF37
:104A7000826080936B0281FFD4CF80916B02816052
:104A8000EFCF90916B02892F8B7F92FF8460809390
:104A90006B0282FDF2CFC5CF90916B02892F877F89
:104AA00093FF886080936B0283FDE7CFBACF0E94AB
:104AB000DE0790918804892F97FB87F980588093AF
:104AC0008804AFCF81E00E9438080E94DE07A9CF9A
:104AD000895391E001C0990F8A95EAF7892FF3CFA6
:104AE0008D51F7CF80E0089580E008950E947425ED
:104AF0000895CF93C82F80913F048130B9F0882367
:104B000031F08230A1F110923F0480E00DC00E948C
:104B1000340D8232D1F78C2F0E94742581111BC075
:104B20008C2F0E9405258170CF9108950E94340D2D
:104B3000823289F38C2F0E94762581110AC0C431FC
:104B400099F060F4CB3029F0C03169F782E08093AE
:104B50003F0481E0E8CF81E090E0E5CFC93221F069
:104B6000C833B9F380E0DFCF10923F04FBCFC932E6
:104B700009F440C0F0F4C431E9F1A8F481E0C73091
:104B800099F68093090184E1809308018AE080937B
:104B900007018EE18093060188E08093030188E29B
:104BA0008093020104C082EE8C0F8A3070F181E0A4
:104BB000BBCFC03509F450C0B8F48AE0CF34B9F7A0
:104BC000E0913C04F0913D04309789F32081082E58
:104BD000000C990B820F911D8F3F910509F00CF489
:104BE0003FC08FEF8083E3CFC135C1F181E0C23593
:104BF00039F39ACF80913E048823C9F210923E0483
:104C000010923D0410923C04D2CFCD51C0933E048B
:104C1000C330C9F048F4C13099F088E091E0C23067
:104C200051F010923E04C3CFC53099F078F082E085
:104C300091E0C630B1F790933D0480933C04B7CF28
:104C400089E091E0F8CF87E091E0F5CF86E091E050
:104C5000F2CF83E091E0EFCF86EFB2CF8FEFB0CF0E
:104C600097FFC0CF1082A3CFCF93DF93EB018631A4
:104C70009C4511F50E94340D9A81992399F08A7A06
:104C800091E009F490E090934004811109C089E219
:104C90000E94E40C0E949F0D80E0DF91CF91089567
:104CA00085E3F6CF80914004811104C089E20E941F
:104CB000EC0CF0CF85E3FBCF81E0EFCFFC018481EA
:104CC000862351F492819923B9F06923808583FF6B
:104CD00005C081E061110FC080E00895892F8F70B9
:104CE00092959F70982B862F8F7062956F70682BAE
:104CF00081E09613F1CF089581E0FDCFCF93DF934C
:104D0000EC0160914B0470914C0480914D049091A2
:104D10004E040E94DF2C643F71408105910518F517
:104D200080914B0490914C04A0914D04B0914E049D
:104D30008093470490934804A0934904B0934A0495
:104D400084EF91E0A0E0B0E08093430490934404AA
:104D5000A0934504B0934604D0934204C093410409
:104D6000DF91CF9108950E94C42C60934704709303
:104D700048048093490490934A0482E390E0A0E0C1
:104D8000B0E0E2CFFF920F931F93CF93DF93F82E03
:104D900000915204109153040115110509F44DC0FE
:104DA00010924204109241040E94630D0E945D0D16
:104DB0000091520410915304D8011696CD91DC91C4
:104DC0009E013A9521153F4108F4D07ED1E0C111F2
:104DD00001C0D0E0D8011996ED91FC911A97309757
:104DE00031F01B966D917C9180E00995D823DD23ED
:104DF00039F08CEF8C0F813A30F58C2F0E94EC0C3F
:104E0000FF2099F0E0915204F0915304808584FDD5
:104E10000CC080915104882341F0808191819C01D4
:104E200021503109203B3D45A0F00E949F0D10927A
:104E300053041092520410925104C801CDB7DEB74A
:104E4000E5E00C940C350E949F0D8C2F0E94E80425
:104E5000D7CF0E947E26E9CF1092110180E00E94F8
:104E6000C226089580911101882319F00E942C27F1
:104E7000089581E08093110108950F931F9380910D
:104E8000410490914204892B89F16091470470910B
:104E900048048091490490914A040E94DF2C0091BB
:104EA0004304109144042091450430914604601756
:104EB000710782079307D0F08091410490914204DA
:104EC0000E94C802109242041092410410924704BA
:104ED000109248041092490410924A04109243041C
:104EE0001092440410924504109246041F910F91B1
:104EF0000895A4E0B0E0EFE7F7E20C94E3348C010E
:104F00007A836983DB0112965C905520B1F08F356E
:104F1000BDE59B0759F08036EDE59E0759F08E35CB
:104F20009D4559F40E943227312C0DC081E08093B9
:104F30001101FACF0E942C27F7CF309011013110C8
:104F400007C033243394832D2496E2E10C94FF347C
:104F5000680120EEC21AD1080E94340DF82E0E947A
:104F6000FB0C482E0E94660D482A4F2838E0C316D5
:104F7000D10408F094C098012770332781E090E0B5
:104F800001C0880F2A95EAF7552009F485C0482A00
:104F9000A981BA818D919C910E940F0980900A018C
:104FA00090900B018114910409F4E1C021E030E0FC
:104FB000390102C0660C771C8A95E2F7E091520431
:104FC000F0915304FA83E983A0904F04B090500409
:104FD000212CE22DF0E0EE0FFF1FE80DF91D2081DE
:104FE00031813C832B832115310509F4C0C0411068
:104FF00005C0D90112968C9181118BC0EB81FC8187
:10500000838190E086219721892B09F482C08085D5
:10501000982F977009F487E0F8E0CF16D10408F0D4
:1050200058C0552009F451C086958170882309F431
:1050300070C0AB81BC81ED90FC900E151F0519F47A
:10504000552009F466C0EB81FC8129813A81E21781
:10505000F30709F45EC00584F685E02D309721F052
:105060008081882309F455C0642D8B819C810E9426
:105070005E26882309F44DC00E151F0509F08BC06C
:105080000115110509F48CC051108CC0EA14FB0401
:1050900009F03FC0512C86C08095482279CF552019
:1050A00009F44EC01093500400934F040E94C42C86
:1050B00060934B0470934C0480934D0490934E0482
:1050C000109242041092410463CF82FB882780F93A
:1050D000ADCF5520F1F08170A9CF0E94E80483C0C4
:1050E0000497813A910548F4802F0E94E40C5520E2
:1050F00009F427CF0E949F0D17CF0E949F0D8FE3C9
:105100009CE90197F1F700C00000802F0E949704EE
:10511000EECF23945ECFFC0120813181201731072F
:1051200031F4511007C01092510480E031C0552075
:1051300009F407CFDC0118968C9185FD02CFF5CFDD
:1051400080914F04909150048017910781F4109240
:10515000500410924F0410924B0410924C04109281
:105160004D0410924E04109242041092410480911A
:10517000520490915304009709F4E3CEA8E0CA16B4
:10518000D10448F6642D0E945E268111DACE81E0BA
:105190000E94C226D8CEE114F10409F077CF512C39
:1051A000F12CE12C80E00E94C226EB81FC81F0937F
:1051B0005304E093520481E08093510485810E945E
:1051C000600D511010C0E114F10469F0AB81BC8195
:1051D0008D919C919C0124503109213A310508F0B0
:1051E0007CCF0E94EC0CEB81FC8106811781C80109
:1051F0009A9581159F4108F4107EFF24F394C8010D
:105200000197803B9D4508F0F12CAB81BC8119963C
:10521000ED91FC911A97309731F01B966D917C912E
:1052200081E00995F822FF2081F0EB81FC818681E5
:1052300097810E948D020E945A0DC801F8E0CF1696
:10524000D10408F04DCF0E947E260E949F0D4FCFC3
:10525000B0E0A0E0EEE2F9E20C94EB347C015B01FB
:10526000C42FD22FFC0182818823C9F040935604B9
:105270000E94B82C909355048093540480E28C0FC4
:10528000883040F4C77081E001C0880FCA95EAF702
:105290000E943B05CDB7DEB7EAE00C9407351091CC
:1052A0005604141338C080915404909155040E9400
:1052B000D02C6C01B701C5010E949A1BC816D906F3
:1052C00050F5C0E2CD0F1D17C1F080E2810F88308C
:1052D00048F4177081E0012E01C0880F0A94EAF7A4
:1052E0000E944205C83048F481E09D2F977001C0AC
:1052F000880F9A95EAF70E943B05802F0E9432059D
:10530000C83040F6D77081E001C0880FDA95EAF71F
:105310000E944205BFCF80E28C0F883008F0BACFE0
:10532000C77081E001C0880FCA95EAF7F1CF0F93EB
:105330009C01CB01233F4CE5340759F1A8F4283DEB
:10534000FCE53F0701F1293D4CE53407D1F1273D4C
:105350003C4591F406E221EE41EE67ED7CE50E94CA
:10536000282980E00F910895253FFCE53F07E9F0EB
:10537000B0F0263F3C45F9F0FC018281882339F1E9
:1053800010925604EFCF07E225EE45EE68ED7CE57E
:10539000E6CF06E221EE40EE63EF7CE5E0CF07E2E8
:1053A00025EE44EE64EF7CE5DACF06E221EE42EE34
:1053B00065EF7CE5D4CF07E225EE46EE66EF7CE5AF
:1053C000CECF08E221E045EE69ED7CE5C8CF81E073
:1053D000C9CFCF93DF93EC01EA85FB85309719F0B5
:1053E0006C857D8509958B810E94500D8C810E9472
:1053F0003D0D0E949F0D86E0FE0111928A95E9F70E
:10540000DF91CF910895CF93DF93EC018D8181FDE2
:1054100012C082608D838B810E944A0D8C810E9414
:10542000370D0E949F0DE885F985309721F06C8536
:105430007D85CE01099510925A04109259048D81F0
:1054400080FD03C0CE010E94E929DF91CF9108952C
:10545000FB0122812223E1F0E0915904F0915A04EA
:105460003097B1F0E817F90799F02EE0E29FF001CC
:105470001124DF01AC5BBC4F2C9124602C93E15CC8
:10548000FC4F91838083CF010E94032A0E94570D15
:105490000895EF92FF920F931F93CF93DF938C01A8
:1054A00097558F3F910511F008F041C07801FF2416
:1054B0008EE0089FF0011124EF01C15CDC4FDB019D
:1054C00012962C91EC5BFC4F808120FB80F980834D
:1054D000222399F10E94B82C90935804809357048A
:1054E0008A818F5F8A830E94340D8B830E94470DCF
:1054F0009B81892B8B830E94660D8C83EE81FF81BB
:10550000309721F06C857D85CE0109958EE08E9DCA
:10551000F0018F9DF00D1124E15CFC4F858181FF2E
:1055200002C010E000E010935A040093590481E097
:10553000CDB7DEB7E6E00C940B358D8181FFF7CF58
:10554000CE010E94E929F3CFA8E0B0E0EAEAFAE24E
:105550000C94F1348091590490915A04892B41F1B3
:1055600080915704909158040E94D02C8C01BE0168
:105570006F5F7F4F88E0FB0111928A95E9F7809178
:10558000590490915A040E949A1B8017910780F445
:1055900080915904FEE08F9FC0011124FC01EC5B57
:1055A000FC4F208122FD04C0815C9C4F0E94032A95
:1055B0002896E4E00C940D359093B3018093B201EA
:1055C00008959093600480935F040895E0915F04D0
:1055D000F0916004309729F00190F081E02D099559
:1055E000089580E00895E0915F04F09160043097A1
:1055F00099F020911E01222359F02091880427FF61
:1056000007C0DC012C9111962C93119726E02C9366
:105610000280F381E02D09950895E0915F04F091F7
:105620006004309739F022E0DC012C930480F5818E
:10563000E02D0995089520915D0430915E042817AE
:10564000390771F090935E0480935D04E0915F04EC
:10565000F0916004309721F00680F781E02D0995E4
:10566000089520915B0430915C042817390771F08C
:1056700090935C0480935B04E0915F04F09160047C
:10568000309721F00084F185E02D09950895FC0103
:10569000329680911E01882321F0809188049EE13A
:1056A00087FF96E080E0915008F40895219122232D
:1056B000D1F38F5FF8CF662301F120911E012223E1
:1056C000F1F02091880427FF1AC0462F4695469591
:1056D00046954E3190F4677021E030E002C0220F11
:1056E000331F6A95E2F7840F911DFC01828190E0DF
:1056F0002823392381E0232B69F480E00895FC01FD
:10570000329608962191261721F0E817F907D1F76C
:10571000F4CF81E008959C01FC0132969FEF80E078
:105720004191461751F09F3F19F4411101C0982F44
:105730008F5F8630A9F79F3F09F40895290F311D27
:1057400097FD3A95F90162830895FC013296089617
:105750002191261303C0DF0111971C92E817F90766
:10576000B9F70895E62FE695E695E695EE3168F4EB
:10577000E80FF92FF11D677021E030E001C0220F22
:105780006A95EAF78281822B82830895E62FE69557
:10579000E695E695EE3170F4E80FF92FF11D67708C
:1057A00021E030E001C0220F6A95EAF7209582815E
:1057B00028232283089520911E01222339F020916D
:1057C000880427FF03C00E94B22B08950E948B2BF0
:1057D000089520911E01222339F02091880427FF8B
:1057E00003C00E94C62B08950E94A52B0895FC01BA
:1057F000329680911E01882351F08091880487FFA2
:1058000006C08EE1DF011D928A95E9F7089586E0D2
:10581000F9CF46E050E00E94373521E0892B09F4AA
:1058200020E0822F089508950E94132C089581117D
:1058300006C081E0809361040E94142C089582E0E8
:10584000F9CF83E0809361040E94142C08950E9494
:10585000172C089581E0809361040E94142C089510
:105860000E942A2C0895089508950E94342C0895CA
:10587000089508950E94332C0895CF930E94382CE8
:105880000E94D6120E94392CC0E08C2F0E94271251
:10589000811105C0CF5FC330C1F7CF91089581E07A
:1058A000FCCF85B7806885BF85B7806885BF0895C0
:1058B0001F921FB61F9211248F939F93AF93BF9394
:1058C00080916204811113C08091E2049091E304FD
:1058D000A091E404B091E5044196A11DB11D80930F
:1058E000E2049093E304A093E404B093E504BF9131
:1058F000AF919F918F911F901FBE1F90189580911F
:10590000EA04843031F10E9409041092620488E1B3
:1059100090E020E40FB6F894A895809360000FBE45
:105920002093600083B7817F846083BF83B78160E9
:1059300083BF7894889583B78E7F83BF0FB6F89422
:10594000A89580916000886180936000109260004B
:105950000FBE08950E94DE070E940E04089582E0A3
:1059600084BD93E095BD9AEF97BD80936E00089536
:105970002FB7F8948091E2049091E304A091E4049D
:10598000B091E5042FBF08952FB7F8946091E20419
:105990007091E3048091E4049091E5042FBF089591
:1059A0009C014FB7F8948091E2049091E304A09198
:1059B000E404B091E5044FBF821B930B0895CF928E
:1059C000DF92EF92FF922FB7F894C090E204D0904C
:1059D000E304E090E404F090E5042FBFA7019601F2
:1059E000261B370B480B590BCA01B901FF90EF90EA
:1059F000DF90CF90089578941F921FB61F921124C4
:105A00008F939F93AF93BF938091E2049091E304AF
:105A1000A091E404B091E5040196A11DB11D80930D
:105A2000E2049093E304A093E404B093E504BF91EF
:105A3000AF919F918F911F901FBE1F90189587E780
:105A400097E7909301088093000888E19AE00FB6E9
:105A5000F894A895809360000FBE90936000FFCFEC
:105A600088E19AE00FB6F894A895809360000FBE85
:105A700090936000FFCF80918604089508959C0163
:105A800084E08093E9009FEF8091E800915085FDCC
:105A900006C085ED8A95F1F700009111F5CF809150
:105AA000E80085FF0CC050E040E066E070E0C9010E
:105AB0000E94EC2F8091E8008E778093E800089593
:105AC000CF93DF93EC0180911E018823B1F1809187
:105AD000880487FF32C060E284E08093E9008FEFA2
